{
  "_format": "hh-sol-artifact-1",
  "contractName": "WavePortal",
  "sourceName": "contracts/WavePortal.sol",
  "abi": [
    {
      "inputs": [],
      "stateMutability": "payable",
      "type": "constructor"
    },
    {
      "anonymous": false,
      "inputs": [
        {
          "components": [
            {
              "internalType": "address",
              "name": "addr",
              "type": "address"
            },
            {
              "internalType": "string",
              "name": "message",
              "type": "string"
            },
            {
              "internalType": "bool",
              "name": "isPostPinned",
              "type": "bool"
            },
            {
              "internalType": "uint32",
              "name": "id",
              "type": "uint32"
            },
            {
              "internalType": "uint256",
              "name": "timestamp",
              "type": "uint256"
            }
          ],
          "indexed": false,
          "internalType": "struct WavePortal.Post",
          "name": "",
          "type": "tuple"
        }
      ],
      "name": "CreatePost",
      "type": "event"
    },
    {
      "anonymous": false,
      "inputs": [
        {
          "components": [
            {
              "internalType": "address",
              "name": "addr",
              "type": "address"
            },
            {
              "internalType": "string",
              "name": "message",
              "type": "string"
            },
            {
              "internalType": "bool",
              "name": "isPostPinned",
              "type": "bool"
            },
            {
              "internalType": "uint32",
              "name": "id",
              "type": "uint32"
            },
            {
              "internalType": "uint256",
              "name": "timestamp",
              "type": "uint256"
            }
          ],
          "indexed": false,
          "internalType": "struct WavePortal.Post[]",
          "name": "posts",
          "type": "tuple[]"
        }
      ],
      "name": "DeletePost",
      "type": "event"
    },
    {
      "anonymous": false,
      "inputs": [
        {
          "components": [
            {
              "internalType": "address",
              "name": "addr",
              "type": "address"
            },
            {
              "internalType": "string",
              "name": "message",
              "type": "string"
            },
            {
              "internalType": "bool",
              "name": "isPostPinned",
              "type": "bool"
            },
            {
              "internalType": "uint32",
              "name": "id",
              "type": "uint32"
            },
            {
              "internalType": "uint256",
              "name": "timestamp",
              "type": "uint256"
            }
          ],
          "indexed": false,
          "internalType": "struct WavePortal.Post[]",
          "name": "posts",
          "type": "tuple[]"
        }
      ],
      "name": "UpdatePost",
      "type": "event"
    },
    {
      "inputs": [
        {
          "internalType": "string",
          "name": "_message",
          "type": "string"
        },
        {
          "internalType": "uint256",
          "name": "_payAmount",
          "type": "uint256"
        }
      ],
      "name": "createPost",
      "outputs": [],
      "stateMutability": "nonpayable",
      "type": "function"
    },
    {
      "inputs": [
        {
          "internalType": "uint256",
          "name": "_id",
          "type": "uint256"
        }
      ],
      "name": "deletePost",
      "outputs": [],
      "stateMutability": "nonpayable",
      "type": "function"
    },
    {
      "inputs": [],
      "name": "getAllPosts",
      "outputs": [
        {
          "components": [
            {
              "internalType": "address",
              "name": "addr",
              "type": "address"
            },
            {
              "internalType": "string",
              "name": "message",
              "type": "string"
            },
            {
              "internalType": "bool",
              "name": "isPostPinned",
              "type": "bool"
            },
            {
              "internalType": "uint32",
              "name": "id",
              "type": "uint32"
            },
            {
              "internalType": "uint256",
              "name": "timestamp",
              "type": "uint256"
            }
          ],
          "internalType": "struct WavePortal.Post[]",
          "name": "",
          "type": "tuple[]"
        }
      ],
      "stateMutability": "view",
      "type": "function"
    },
    {
      "inputs": [
        {
          "internalType": "address",
          "name": "",
          "type": "address"
        }
      ],
      "name": "lastPostTimestamp",
      "outputs": [
        {
          "internalType": "uint256",
          "name": "",
          "type": "uint256"
        }
      ],
      "stateMutability": "view",
      "type": "function"
    },
    {
      "inputs": [],
      "name": "owner",
      "outputs": [
        {
          "internalType": "address payable",
          "name": "",
          "type": "address"
        }
      ],
      "stateMutability": "view",
      "type": "function"
    },
    {
      "inputs": [
        {
          "internalType": "uint256",
          "name": "_id",
          "type": "uint256"
        },
        {
          "internalType": "string",
          "name": "_message",
          "type": "string"
        },
        {
          "internalType": "uint256",
          "name": "_payAmount",
          "type": "uint256"
        }
      ],
      "name": "updatePost",
      "outputs": [],
      "stateMutability": "nonpayable",
      "type": "function"
    }
  ],
  "bytecode": "0x6080604052606444426200001491906200006d565b620000209190620000d4565b60008190555033600160006101000a81548173ffffffffffffffffffffffffffffffffffffffff021916908373ffffffffffffffffffffffffffffffffffffffff1602179055506200016a565b60006200007a82620000ca565b91506200008783620000ca565b9250827fffffffffffffffffffffffffffffffffffffffffffffffffffffffffffffffff03821115620000bf57620000be6200010c565b5b828201905092915050565b6000819050919050565b6000620000e182620000ca565b9150620000ee83620000ca565b9250826200010157620001006200013b565b5b828206905092915050565b7f4e487b7100000000000000000000000000000000000000000000000000000000600052601160045260246000fd5b7f4e487b7100000000000000000000000000000000000000000000000000000000600052601260045260246000fd5b611eb0806200017a6000396000f3fe608060405234801561001057600080fd5b50600436106100625760003560e01c8063094cd5ee146100675780631252cb4814610083578063305611001461009f5780638da5cb5b146100bd578063db86e57d146100db578063faac8d8b1461010b575b600080fd5b610081600480360381019061007c91906111e6565b610127565b005b61009d6004803603810190610098919061118e565b61055e565b005b6100a76108b1565b6040516100b491906118e3565b60405180910390f35b6100c5610a43565b6040516100d291906118c8565b60405180910390f35b6100f560048036038101906100f09190611165565b610a69565b6040516101029190611a09565b60405180910390f35b6101256004803603810190610120919061120f565b610a81565b005b803373ffffffffffffffffffffffffffffffffffffffff16600260046000848152602001908152602001600020548154811061018c577f4e487b7100000000000000000000000000000000000000000000000000000000600052603260045260246000fd5b906000526020600020906004020160000160009054906101000a900473ffffffffffffffffffffffffffffffffffffffff1673ffffffffffffffffffffffffffffffffffffffff1614610214576040517f08c379a000000000000000000000000000000000000000000000000000000000815260040161020b90611967565b60405180910390fd5b6000600460008481526020019081526020016000205490505b600160028054905061023f9190611b2d565b8110156104665760026001826102559190611ad7565b8154811061028c577f4e487b7100000000000000000000000000000000000000000000000000000000600052603260045260246000fd5b9060005260206000209060040201600282815481106102d4577f4e487b7100000000000000000000000000000000000000000000000000000000600052603260045260246000fd5b90600052602060002090600402016000820160009054906101000a900473ffffffffffffffffffffffffffffffffffffffff168160000160006101000a81548173ffffffffffffffffffffffffffffffffffffffff021916908373ffffffffffffffffffffffffffffffffffffffff160217905550600182018160010190805461035d90611c45565b610368929190610efb565b506002820160009054906101000a900460ff168160020160006101000a81548160ff0219169083151502179055506002820160019054906101000a900463ffffffff168160020160016101000a81548163ffffffff021916908363ffffffff16021790555060038201548160030155905050806004600060028481548110610419577f4e487b7100000000000000000000000000000000000000000000000000000000600052603260045260246000fd5b906000526020600020906004020160020160019054906101000a900463ffffffff1663ffffffff16815260200190815260200160002081905550808061045e90611cdf565b91505061022d565b50600280548061049f577f4e487b7100000000000000000000000000000000000000000000000000000000600052603160045260246000fd5b6001900381819060005260206000209060040201600080820160006101000a81549073ffffffffffffffffffffffffffffffffffffffff02191690556001820160006104eb9190610f88565b6002820160006101000a81549060ff02191690556002820160016101000a81549063ffffffff02191690556003820160009055505090557f2b615450f9efb61d65ccd7aa39053d7662cbe910f26527e17bea99ecfb5b932060026040516105529190611905565b60405180910390a15050565b6000804290506000813360405160200161057992919061189c565b6040516020818303038152906040528051906020012060001c905081601e600360003373ffffffffffffffffffffffffffffffffffffffff1673ffffffffffffffffffffffffffffffffffffffff168152602001908152602001600020546105e19190611ad7565b10610621576040517f08c379a0000000000000000000000000000000000000000000000000000000008152600401610618906119a7565b60405180910390fd5b81600360003373ffffffffffffffffffffffffffffffffffffffff1673ffffffffffffffffffffffffffffffffffffffff16815260200190815260200160002081905550600280549050600460008363ffffffff16815260200190815260200160002081905550600084111561069f576001925061069e84610ca5565b5b6106a7610dc7565b60026040518060a001604052803373ffffffffffffffffffffffffffffffffffffffff16815260200188888080601f016020809104026020016040519081016040528093929190818152602001838380828437600081840152601f19601f82011690508083019250505050505050815260200185151581526020018363ffffffff16815260200184815250908060018154018082558091505060019003906000526020600020906004020160009091909190915060008201518160000160006101000a81548173ffffffffffffffffffffffffffffffffffffffff021916908373ffffffffffffffffffffffffffffffffffffffff16021790555060208201518160010190805190602001906107be929190610fc8565b5060408201518160020160006101000a81548160ff02191690831515021790555060608201518160020160016101000a81548163ffffffff021916908363ffffffff1602179055506080820151816003015550507f9837df7bc4a2478a6375e736d296003a78f4360d10887f06eca3b36d9918d2806002600460008463ffffffff1681526020019081526020016000205481548110610886577f4e487b7100000000000000000000000000000000000000000000000000000000600052603260045260246000fd5b90600052602060002090600402016040516108a191906119e7565b60405180910390a1505050505050565b60606002805480602002602001604051908101604052809291908181526020016000905b82821015610a3a57838290600052602060002090600402016040518060a00160405290816000820160009054906101000a900473ffffffffffffffffffffffffffffffffffffffff1673ffffffffffffffffffffffffffffffffffffffff1673ffffffffffffffffffffffffffffffffffffffff16815260200160018201805461095e90611c45565b80601f016020809104026020016040519081016040528092919081815260200182805461098a90611c45565b80156109d75780601f106109ac576101008083540402835291602001916109d7565b820191906000526020600020905b8154815290600101906020018083116109ba57829003601f168201915b505050505081526020016002820160009054906101000a900460ff161515151581526020016002820160019054906101000a900463ffffffff1663ffffffff1663ffffffff168152602001600382015481525050815260200190600101906108d5565b50505050905090565b600160009054906101000a900473ffffffffffffffffffffffffffffffffffffffff1681565b60036020528060005260406000206000915090505481565b833373ffffffffffffffffffffffffffffffffffffffff166002600460008481526020019081526020016000205481548110610ae6577f4e487b7100000000000000000000000000000000000000000000000000000000600052603260045260246000fd5b906000526020600020906004020160000160009054906101000a900473ffffffffffffffffffffffffffffffffffffffff1673ffffffffffffffffffffffffffffffffffffffff1614610b6e576040517f08c379a0000000000000000000000000000000000000000000000000000000008152600401610b6590611967565b60405180910390fd5b6000821115610bf85760016002600460008881526020019081526020016000205481548110610bc6577f4e487b7100000000000000000000000000000000000000000000000000000000600052603260045260246000fd5b906000526020600020906004020160020160006101000a81548160ff021916908315150217905550610bf782610ca5565b5b83836002600460008981526020019081526020016000205481548110610c47577f4e487b7100000000000000000000000000000000000000000000000000000000600052603260045260246000fd5b90600052602060002090600402016001019190610c6592919061104e565b507fa356e5c499efaa4162c1c139db50672d655b14a5a4c158ca23fc4bbf4d7377ba6002604051610c969190611905565b60405180910390a15050505050565b600066038d7ea4c68000905080821115610cf4576040517f08c379a0000000000000000000000000000000000000000000000000000000008152600401610ceb90611947565b60405180910390fd5b6000600160009054906101000a900473ffffffffffffffffffffffffffffffffffffffff1673ffffffffffffffffffffffffffffffffffffffff1683604051610d3c90611887565b60006040518083038185875af1925050503d8060008114610d79576040519150601f19603f3d011682016040523d82523d6000602084013e610d7e565b606091505b5050905080610dc2576040517f08c379a0000000000000000000000000000000000000000000000000000000008152600401610db990611987565b60405180910390fd5b505050565b60646000544442610dd89190611ad7565b610de29190611ad7565b610dec9190611d56565b600081905550603260005411610ef9576000655af3107a4000905047811115610e4a576040517f08c379a0000000000000000000000000000000000000000000000000000000008152600401610e4190611927565b60405180910390fd5b60003373ffffffffffffffffffffffffffffffffffffffff1682604051610e7090611887565b60006040518083038185875af1925050503d8060008114610ead576040519150601f19603f3d011682016040523d82523d6000602084013e610eb2565b606091505b5050905080610ef6576040517f08c379a0000000000000000000000000000000000000000000000000000000008152600401610eed906119c7565b60405180910390fd5b50505b565b828054610f0790611c45565b90600052602060002090601f016020900481019282610f295760008555610f77565b82601f10610f3a5780548555610f77565b82800160010185558215610f7757600052602060002091601f016020900482015b82811115610f76578254825591600101919060010190610f5b565b5b509050610f8491906110d4565b5090565b508054610f9490611c45565b6000825580601f10610fa65750610fc5565b601f016020900490600052602060002090810190610fc491906110d4565b5b50565b828054610fd490611c45565b90600052602060002090601f016020900481019282610ff6576000855561103d565b82601f1061100f57805160ff191683800117855561103d565b8280016001018555821561103d579182015b8281111561103c578251825591602001919060010190611021565b5b50905061104a91906110d4565b5090565b82805461105a90611c45565b90600052602060002090601f01602090048101928261107c57600085556110c3565b82601f1061109557803560ff19168380011785556110c3565b828001600101855582156110c3579182015b828111156110c25782358255916020019190600101906110a7565b5b5090506110d091906110d4565b5090565b5b808211156110ed5760008160009055506001016110d5565b5090565b60008135905061110081611e4c565b92915050565b60008083601f84011261111857600080fd5b8235905067ffffffffffffffff81111561113157600080fd5b60208301915083600182028301111561114957600080fd5b9250929050565b60008135905061115f81611e63565b92915050565b60006020828403121561117757600080fd5b6000611185848285016110f1565b91505092915050565b6000806000604084860312156111a357600080fd5b600084013567ffffffffffffffff8111156111bd57600080fd5b6111c986828701611106565b935093505060206111dc86828701611150565b9150509250925092565b6000602082840312156111f857600080fd5b600061120684828501611150565b91505092915050565b6000806000806060858703121561122557600080fd5b600061123387828801611150565b945050602085013567ffffffffffffffff81111561125057600080fd5b61125c87828801611106565b9350935050604061126f87828801611150565b91505092959194509250565b60006112878383611695565b905092915050565b600061129b838361170b565b905092915050565b6112ac81611bba565b82525050565b6112bb81611ba8565b82525050565b6112d26112cd82611ba8565b611d28565b82525050565b60006112e382611a5e565b6112ed8185611a99565b9350836020820285016112ff85611a24565b8060005b8581101561133b578484038952815161131c858261127b565b945061132783611a7f565b925060208a01995050600181019050611303565b50829750879550505050505092915050565b600061135882611a69565b6113628185611a99565b93508360208202850161137485611a34565b8060005b858110156113af57848403895281611390858261128f565b945061139b83611a8c565b925060208a01995050600181019050611378565b50829750879550505050505092915050565b6113ca81611bcc565b82525050565b60006113db82611a74565b6113e58185611ab5565b93506113f5818560208601611c12565b6113fe81611e14565b840191505092915050565b6000815461141681611c45565b6114208186611ab5565b9450600182166000811461143b576001811461144d57611480565b60ff1983168652602086019350611480565b61145685611a49565b60005b8381101561147857815481890152600182019150602081019050611459565b808801955050505b50505092915050565b6000611496602483611ac6565b91507f436f6e747261637420646f6573206e6f74206861766520656e6f75676820667560008301527f6e64732e000000000000000000000000000000000000000000000000000000006020830152604082019050919050565b60006114fc601b83611ac6565b91507f496e73756666696369656e742045746865722070726f766964656400000000006000830152602082019050919050565b600061153c601a83611ac6565b91507f596f7520646f206e6f742068617665207065726d697373696f6e0000000000006000830152602082019050919050565b600061157c601483611ac6565b91507f4661696c656420746f2073656e64206d6f6e65790000000000000000000000006000830152602082019050919050565b60006115bc602983611ac6565b91507f4d7573742077616974203330207365636f6e6473206265666f726520706f737460008301527f696e6720616761696e00000000000000000000000000000000000000000000006020830152604082019050919050565b6000611622602783611ac6565b91507f4661696c656420746f207769746864726177206d6f6e65792066726f6d20636f60008301527f6e74726163742e000000000000000000000000000000000000000000000000006020830152604082019050919050565b6000611688600083611aaa565b9150600082019050919050565b600060a0830160008301516116ad60008601826112b2565b50602083015184820360208601526116c582826113d0565b91505060408301516116da60408601826113c1565b5060608301516116ed6060860182611878565b5060808301516117006080860182611843565b508091505092915050565b600060a08301600080840154905061172281611c77565b61172f60008701826112b2565b506001840185830360208701526117468382611409565b9250506002840154905061175981611c91565b61176660408701826113c1565b5061177081611cc5565b61177d6060870182611878565b506003840154905061178e81611cab565b61179b6080870182611843565b50819250505092915050565b600060a0830160008084015490506117be81611c77565b6117cb60008701826112b2565b506001840185830360208701526117e28382611409565b925050600284015490506117f581611c91565b61180260408701826113c1565b5061180c81611cc5565b6118196060870182611878565b506003840154905061182a81611cab565b6118376080870182611843565b50819250505092915050565b61184c81611bf8565b82525050565b61185b81611bf8565b82525050565b61187261186d82611bf8565b611d4c565b82525050565b61188181611c02565b82525050565b60006118928261167b565b9150819050919050565b60006118a88285611861565b6020820191506118b882846112c1565b6014820191508190509392505050565b60006020820190506118dd60008301846112a3565b92915050565b600060208201905081810360008301526118fd81846112d8565b905092915050565b6000602082019050818103600083015261191f818461134d565b905092915050565b6000602082019050818103600083015261194081611489565b9050919050565b60006020820190508181036000830152611960816114ef565b9050919050565b600060208201905081810360008301526119808161152f565b9050919050565b600060208201905081810360008301526119a08161156f565b9050919050565b600060208201905081810360008301526119c0816115af565b9050919050565b600060208201905081810360008301526119e081611615565b9050919050565b60006020820190508181036000830152611a0181846117a7565b905092915050565b6000602082019050611a1e6000830184611852565b92915050565b6000819050602082019050919050565b60008190508160005260206000209050919050565b60008190508160005260206000209050919050565b600081519050919050565b600081549050919050565b600081519050919050565b6000602082019050919050565b6000600482019050919050565b600082825260208201905092915050565b600081905092915050565b600082825260208201905092915050565b600082825260208201905092915050565b6000611ae282611bf8565b9150611aed83611bf8565b9250827fffffffffffffffffffffffffffffffffffffffffffffffffffffffffffffffff03821115611b2257611b21611d87565b5b828201905092915050565b6000611b3882611bf8565b9150611b4383611bf8565b925082821015611b5657611b55611d87565b5b828203905092915050565b600073ffffffffffffffffffffffffffffffffffffffff82169050919050565b600060ff82169050919050565b6000819050919050565b600063ffffffff82169050919050565b6000611bb382611bd8565b9050919050565b6000611bc582611bd8565b9050919050565b60008115159050919050565b600073ffffffffffffffffffffffffffffffffffffffff82169050919050565b6000819050919050565b600063ffffffff82169050919050565b60005b83811015611c30578082015181840152602081019050611c15565b83811115611c3f576000848401525b50505050565b60006002820490506001821680611c5d57607f821691505b60208210811415611c7157611c70611de5565b5b50919050565b6000611c8a611c8583611e32565b611b61565b9050919050565b6000611ca4611c9f83611e32565b611b81565b9050919050565b6000611cbe611cb983611e32565b611b8e565b9050919050565b6000611cd8611cd383611e3f565b611b98565b9050919050565b6000611cea82611bf8565b91507fffffffffffffffffffffffffffffffffffffffffffffffffffffffffffffffff821415611d1d57611d1c611d87565b5b600182019050919050565b6000611d3382611d3a565b9050919050565b6000611d4582611e25565b9050919050565b6000819050919050565b6000611d6182611bf8565b9150611d6c83611bf8565b925082611d7c57611d7b611db6565b5b828206905092915050565b7f4e487b7100000000000000000000000000000000000000000000000000000000600052601160045260246000fd5b7f4e487b7100000000000000000000000000000000000000000000000000000000600052601260045260246000fd5b7f4e487b7100000000000000000000000000000000000000000000000000000000600052602260045260246000fd5b6000601f19601f8301169050919050565b60008160601b9050919050565b60008160001c9050919050565b60008160081c9050919050565b611e5581611ba8565b8114611e6057600080fd5b50565b611e6c81611bf8565b8114611e7757600080fd5b5056fea2646970667358221220721f3d6f2ca10ed1486e4d16e998177ceca54321124b6502ef9585ee404b425264736f6c63430008000033",
  "linkReferences": {},
  "deployedLinkReferences": {}
}