{
  "_format": "hh-sol-artifact-1",
  "contractName": "WavePortal",
  "sourceName": "contracts/WavePortal.sol",
  "abi": [
    {
      "inputs": [],
      "stateMutability": "payable",
      "type": "constructor"
    },
    {
      "anonymous": false,
      "inputs": [
        {
          "components": [
            {
              "internalType": "address",
              "name": "addr",
              "type": "address"
            },
            {
              "internalType": "string",
              "name": "message",
              "type": "string"
            },
            {
              "internalType": "uint32",
              "name": "id",
              "type": "uint32"
            },
            {
              "internalType": "uint256",
              "name": "timestamp",
              "type": "uint256"
            }
          ],
          "indexed": false,
          "internalType": "struct WavePortal.Post",
          "name": "",
          "type": "tuple"
        }
      ],
      "name": "CreatePost",
      "type": "event"
    },
    {
      "anonymous": false,
      "inputs": [
        {
          "components": [
            {
              "internalType": "address",
              "name": "addr",
              "type": "address"
            },
            {
              "internalType": "string",
              "name": "message",
              "type": "string"
            },
            {
              "internalType": "uint32",
              "name": "id",
              "type": "uint32"
            },
            {
              "internalType": "uint256",
              "name": "timestamp",
              "type": "uint256"
            }
          ],
          "indexed": false,
          "internalType": "struct WavePortal.Post[]",
          "name": "posts",
          "type": "tuple[]"
        }
      ],
      "name": "DeletePost",
      "type": "event"
    },
    {
      "anonymous": false,
      "inputs": [
        {
          "components": [
            {
              "internalType": "address",
              "name": "addr",
              "type": "address"
            },
            {
              "internalType": "string",
              "name": "message",
              "type": "string"
            },
            {
              "internalType": "uint32",
              "name": "id",
              "type": "uint32"
            },
            {
              "internalType": "uint256",
              "name": "timestamp",
              "type": "uint256"
            }
          ],
          "indexed": false,
          "internalType": "struct WavePortal.Post[]",
          "name": "posts",
          "type": "tuple[]"
        }
      ],
      "name": "UpdatePost",
      "type": "event"
    },
    {
      "inputs": [
        {
          "internalType": "string",
          "name": "_message",
          "type": "string"
        }
      ],
      "name": "createPost",
      "outputs": [],
      "stateMutability": "nonpayable",
      "type": "function"
    },
    {
      "inputs": [
        {
          "internalType": "uint256",
          "name": "_id",
          "type": "uint256"
        }
      ],
      "name": "deletePost",
      "outputs": [],
      "stateMutability": "nonpayable",
      "type": "function"
    },
    {
      "inputs": [],
      "name": "getAllPosts",
      "outputs": [
        {
          "components": [
            {
              "internalType": "address",
              "name": "addr",
              "type": "address"
            },
            {
              "internalType": "string",
              "name": "message",
              "type": "string"
            },
            {
              "internalType": "uint32",
              "name": "id",
              "type": "uint32"
            },
            {
              "internalType": "uint256",
              "name": "timestamp",
              "type": "uint256"
            }
          ],
          "internalType": "struct WavePortal.Post[]",
          "name": "",
          "type": "tuple[]"
        }
      ],
      "stateMutability": "view",
      "type": "function"
    },
    {
      "inputs": [
        {
          "internalType": "address",
          "name": "",
          "type": "address"
        }
      ],
      "name": "lastPostTimestamp",
      "outputs": [
        {
          "internalType": "uint256",
          "name": "",
          "type": "uint256"
        }
      ],
      "stateMutability": "view",
      "type": "function"
    },
    {
      "inputs": [
        {
          "internalType": "string",
          "name": "_message",
          "type": "string"
        },
        {
          "internalType": "uint256",
          "name": "_id",
          "type": "uint256"
        }
      ],
      "name": "updatePost",
      "outputs": [],
      "stateMutability": "nonpayable",
      "type": "function"
    }
  ],
  "bytecode": "0x6080604052606444426200001491906200002c565b62000020919062000093565b60008190555062000129565b6000620000398262000089565b9150620000468362000089565b9250827fffffffffffffffffffffffffffffffffffffffffffffffffffffffffffffffff038211156200007e576200007d620000cb565b5b828201905092915050565b6000819050919050565b6000620000a08262000089565b9150620000ad8362000089565b925082620000c057620000bf620000fa565b5b828206905092915050565b7f4e487b7100000000000000000000000000000000000000000000000000000000600052601160045260246000fd5b7f4e487b7100000000000000000000000000000000000000000000000000000000600052601260045260246000fd5b61194480620001396000396000f3fe608060405234801561001057600080fd5b50600436106100575760003560e01c80630448af071461005c578063094cd5ee146100785780633056110014610094578063c7303c61146100b2578063db86e57d146100ce575b600080fd5b61007660048036038101906100719190610ea0565b6100fe565b005b610092600480360381019061008d9190610ef8565b610297565b005b61009c61068b565b6040516100a99190611429565b60405180910390f35b6100cc60048036038101906100c79190610e5b565b610802565b005b6100e860048036038101906100e39190610e32565b610bb0565b6040516100f591906114ef565b60405180910390f35b803373ffffffffffffffffffffffffffffffffffffffff166001600360008481526020019081526020016000205481548110610163577f4e487b7100000000000000000000000000000000000000000000000000000000600052603260045260246000fd5b906000526020600020906004020160000160009054906101000a900473ffffffffffffffffffffffffffffffffffffffff1673ffffffffffffffffffffffffffffffffffffffff16146101eb576040517f08c379a00000000000000000000000000000000000000000000000000000000081526004016101e29061148d565b60405180910390fd5b8383600160036000868152602001908152602001600020548154811061023a577f4e487b7100000000000000000000000000000000000000000000000000000000600052603260045260246000fd5b90600052602060002090600402016001019190610258929190610bc8565b507fa89cf19821d82fc63dd913583edb0ba28584fcf9c1f6768fe27fcaa59b0af97a6001604051610289919061144b565b60405180910390a150505050565b803373ffffffffffffffffffffffffffffffffffffffff1660016003600084815260200190815260200160002054815481106102fc577f4e487b7100000000000000000000000000000000000000000000000000000000600052603260045260246000fd5b906000526020600020906004020160000160009054906101000a900473ffffffffffffffffffffffffffffffffffffffff1673ffffffffffffffffffffffffffffffffffffffff1614610384576040517f08c379a000000000000000000000000000000000000000000000000000000000815260040161037b9061148d565b60405180910390fd5b6000600360008481526020019081526020016000205490505b600180805490506103ae9190611613565b8110156105a757600180826103c391906115bd565b815481106103fa577f4e487b7100000000000000000000000000000000000000000000000000000000600052603260045260246000fd5b906000526020600020906004020160018281548110610442577f4e487b7100000000000000000000000000000000000000000000000000000000600052603260045260246000fd5b90600052602060002090600402016000820160009054906101000a900473ffffffffffffffffffffffffffffffffffffffff168160000160006101000a81548173ffffffffffffffffffffffffffffffffffffffff021916908373ffffffffffffffffffffffffffffffffffffffff16021790555060018201816001019080546104cb90611700565b6104d6929190610c4e565b506002820160009054906101000a900463ffffffff168160020160006101000a81548163ffffffff021916908363ffffffff1602179055506003820154816003015590505080600360006001848154811061055a577f4e487b7100000000000000000000000000000000000000000000000000000000600052603260045260246000fd5b906000526020600020906004020160020160009054906101000a900463ffffffff1663ffffffff16815260200190815260200160002081905550808061059f90611780565b91505061039d565b5060018054806105e0577f4e487b7100000000000000000000000000000000000000000000000000000000600052603160045260246000fd5b6001900381819060005260206000209060040201600080820160006101000a81549073ffffffffffffffffffffffffffffffffffffffff021916905560018201600061062c9190610cdb565b6002820160006101000a81549063ffffffff02191690556003820160009055505090557fee5d79784818899e22cb57e33ad55515274b47b14eb9b6b3206816edd851b86b600160405161067f919061144b565b60405180910390a15050565b60606001805480602002602001604051908101604052809291908181526020016000905b828210156107f957838290600052602060002090600402016040518060800160405290816000820160009054906101000a900473ffffffffffffffffffffffffffffffffffffffff1673ffffffffffffffffffffffffffffffffffffffff1673ffffffffffffffffffffffffffffffffffffffff16815260200160018201805461073890611700565b80601f016020809104026020016040519081016040528092919081815260200182805461076490611700565b80156107b15780601f10610786576101008083540402835291602001916107b1565b820191906000526020600020905b81548152906001019060200180831161079457829003601f168201915b505050505081526020016002820160009054906101000a900463ffffffff1663ffffffff1663ffffffff168152602001600382015481525050815260200190600101906106af565b50505050905090565b60004290506000813360405160200161081c9291906113fd565b6040516020818303038152906040528051906020012060001c905081600260003373ffffffffffffffffffffffffffffffffffffffff1673ffffffffffffffffffffffffffffffffffffffff16815260200190815260200160002081905550600180549050600360008363ffffffff16815260200190815260200160002081905550600160405180608001604052803373ffffffffffffffffffffffffffffffffffffffff16815260200186868080601f016020809104026020016040519081016040528093929190818152602001838380828437600081840152601f19601f8201169050808301925050505050505081526020018363ffffffff16815260200184815250908060018154018082558091505060019003906000526020600020906004020160009091909190915060008201518160000160006101000a81548173ffffffffffffffffffffffffffffffffffffffff021916908373ffffffffffffffffffffffffffffffffffffffff16021790555060208201518160010190805190602001906109ad929190610d1b565b5060408201518160020160006101000a81548163ffffffff021916908363ffffffff160217905550606082015181600301555050606460005444846109f291906115bd565b6109fc91906115bd565b610a0691906117f7565b600081905550603260005411610b13576000655af3107a4000905047811115610a64576040517f08c379a0000000000000000000000000000000000000000000000000000000008152600401610a5b9061146d565b60405180910390fd5b60003373ffffffffffffffffffffffffffffffffffffffff1682604051610a8a906113e8565b60006040518083038185875af1925050503d8060008114610ac7576040519150601f19603f3d011682016040523d82523d6000602084013e610acc565b606091505b5050905080610b10576040517f08c379a0000000000000000000000000000000000000000000000000000000008152600401610b07906114ad565b60405180910390fd5b50505b7fb2376d748293787ccb56de95ba3a33025ef2854f1b322da21158116f6422903b6001600360008463ffffffff1681526020019081526020016000205481548110610b87577f4e487b7100000000000000000000000000000000000000000000000000000000600052603260045260246000fd5b9060005260206000209060040201604051610ba291906114cd565b60405180910390a150505050565b60026020528060005260406000206000915090505481565b828054610bd490611700565b90600052602060002090601f016020900481019282610bf65760008555610c3d565b82601f10610c0f57803560ff1916838001178555610c3d565b82800160010185558215610c3d579182015b82811115610c3c578235825591602001919060010190610c21565b5b509050610c4a9190610da1565b5090565b828054610c5a90611700565b90600052602060002090601f016020900481019282610c7c5760008555610cca565b82601f10610c8d5780548555610cca565b82800160010185558215610cca57600052602060002091601f016020900482015b82811115610cc9578254825591600101919060010190610cae565b5b509050610cd79190610da1565b5090565b508054610ce790611700565b6000825580601f10610cf95750610d18565b601f016020900490600052602060002090810190610d179190610da1565b5b50565b828054610d2790611700565b90600052602060002090601f016020900481019282610d495760008555610d90565b82601f10610d6257805160ff1916838001178555610d90565b82800160010185558215610d90579182015b82811115610d8f578251825591602001919060010190610d74565b5b509050610d9d9190610da1565b5090565b5b80821115610dba576000816000905550600101610da2565b5090565b600081359050610dcd816118e0565b92915050565b60008083601f840112610de557600080fd5b8235905067ffffffffffffffff811115610dfe57600080fd5b602083019150836001820283011115610e1657600080fd5b9250929050565b600081359050610e2c816118f7565b92915050565b600060208284031215610e4457600080fd5b6000610e5284828501610dbe565b91505092915050565b60008060208385031215610e6e57600080fd5b600083013567ffffffffffffffff811115610e8857600080fd5b610e9485828601610dd3565b92509250509250929050565b600080600060408486031215610eb557600080fd5b600084013567ffffffffffffffff811115610ecf57600080fd5b610edb86828701610dd3565b93509350506020610eee86828701610e1d565b9150509250925092565b600060208284031215610f0a57600080fd5b6000610f1884828501610e1d565b91505092915050565b6000610f2d8383611237565b905092915050565b6000610f41838361129a565b905092915050565b610f5281611681565b82525050565b610f69610f6482611681565b6117c9565b82525050565b6000610f7a82611544565b610f84818561157f565b935083602082028501610f968561150a565b8060005b85811015610fd25784840389528151610fb38582610f21565b9450610fbe83611565565b925060208a01995050600181019050610f9a565b50829750879550505050505092915050565b6000610fef8261154f565b610ff9818561157f565b93508360208202850161100b8561151a565b8060005b85811015611046578484038952816110278582610f35565b945061103283611572565b925060208a0199505060018101905061100f565b50829750879550505050505092915050565b60006110638261155a565b61106d818561159b565b935061107d8185602086016116cd565b611086816118b5565b840191505092915050565b6000815461109e81611700565b6110a8818661159b565b945060018216600081146110c357600181146110d557611108565b60ff1983168652602086019350611108565b6110de8561152f565b60005b83811015611100578154818901526001820191506020810190506110e1565b808801955050505b50505092915050565b600061111e6024836115ac565b91507f436f6e747261637420646f6573206e6f74206861766520656e6f75676820667560008301527f6e64732e000000000000000000000000000000000000000000000000000000006020830152604082019050919050565b6000611184601a836115ac565b91507f596f7520646f206e6f742068617665207065726d697373696f6e0000000000006000830152602082019050919050565b60006111c46027836115ac565b91507f4661696c656420746f207769746864726177206d6f6e65792066726f6d20636f60008301527f6e74726163742e000000000000000000000000000000000000000000000000006020830152604082019050919050565b600061122a600083611590565b9150600082019050919050565b600060808301600083015161124f6000860182610f49565b50602083015184820360208601526112678282611058565b915050604083015161127c60408601826113d9565b50606083015161128f60608601826113a4565b508091505092915050565b60006080830160008084015490506112b181611732565b6112be6000870182610f49565b506001840185830360208701526112d58382611091565b925050600284015490506112e881611766565b6112f560408701826113d9565b50600384015490506113068161174c565b61131360608701826113a4565b50819250505092915050565b600060808301600080840154905061133681611732565b6113436000870182610f49565b5060018401858303602087015261135a8382611091565b9250506002840154905061136d81611766565b61137a60408701826113d9565b506003840154905061138b8161174c565b61139860608701826113a4565b50819250505092915050565b6113ad816116b3565b82525050565b6113bc816116b3565b82525050565b6113d36113ce826116b3565b6117ed565b82525050565b6113e2816116bd565b82525050565b60006113f38261121d565b9150819050919050565b600061140982856113c2565b6020820191506114198284610f58565b6014820191508190509392505050565b600060208201905081810360008301526114438184610f6f565b905092915050565b600060208201905081810360008301526114658184610fe4565b905092915050565b6000602082019050818103600083015261148681611111565b9050919050565b600060208201905081810360008301526114a681611177565b9050919050565b600060208201905081810360008301526114c6816111b7565b9050919050565b600060208201905081810360008301526114e7818461131f565b905092915050565b600060208201905061150460008301846113b3565b92915050565b6000819050602082019050919050565b60008190508160005260206000209050919050565b60008190508160005260206000209050919050565b600081519050919050565b600081549050919050565b600081519050919050565b6000602082019050919050565b6000600482019050919050565b600082825260208201905092915050565b600081905092915050565b600082825260208201905092915050565b600082825260208201905092915050565b60006115c8826116b3565b91506115d3836116b3565b9250827fffffffffffffffffffffffffffffffffffffffffffffffffffffffffffffffff0382111561160857611607611828565b5b828201905092915050565b600061161e826116b3565b9150611629836116b3565b92508282101561163c5761163b611828565b5b828203905092915050565b600073ffffffffffffffffffffffffffffffffffffffff82169050919050565b6000819050919050565b600063ffffffff82169050919050565b600061168c82611693565b9050919050565b600073ffffffffffffffffffffffffffffffffffffffff82169050919050565b6000819050919050565b600063ffffffff82169050919050565b60005b838110156116eb5780820151818401526020810190506116d0565b838111156116fa576000848401525b50505050565b6000600282049050600182168061171857607f821691505b6020821081141561172c5761172b611886565b5b50919050565b6000611745611740836118d3565b611647565b9050919050565b600061175f61175a836118d3565b611667565b9050919050565b6000611779611774836118d3565b611671565b9050919050565b600061178b826116b3565b91507fffffffffffffffffffffffffffffffffffffffffffffffffffffffffffffffff8214156117be576117bd611828565b5b600182019050919050565b60006117d4826117db565b9050919050565b60006117e6826118c6565b9050919050565b6000819050919050565b6000611802826116b3565b915061180d836116b3565b92508261181d5761181c611857565b5b828206905092915050565b7f4e487b7100000000000000000000000000000000000000000000000000000000600052601160045260246000fd5b7f4e487b7100000000000000000000000000000000000000000000000000000000600052601260045260246000fd5b7f4e487b7100000000000000000000000000000000000000000000000000000000600052602260045260246000fd5b6000601f19601f8301169050919050565b60008160601b9050919050565b60008160001c9050919050565b6118e981611681565b81146118f457600080fd5b50565b611900816116b3565b811461190b57600080fd5b5056fea264697066735822122086156557409364c0e69d139cef8b7d08d5b45d15fdaf8800afa5da74d69a08cc64736f6c63430008000033",
  "linkReferences": {},
  "deployedLinkReferences": {}
}