{
  "_format": "hh-sol-artifact-1",
  "contractName": "WavePortal",
  "sourceName": "contracts/WavePortal.sol",
  "abi": [
    {
      "inputs": [],
      "stateMutability": "payable",
      "type": "constructor"
    },
    {
      "anonymous": false,
      "inputs": [
        {
          "indexed": true,
          "internalType": "address",
          "name": "from",
          "type": "address"
        },
        {
          "indexed": false,
          "internalType": "string",
          "name": "message",
          "type": "string"
        },
        {
          "indexed": false,
          "internalType": "uint256",
          "name": "timestamp",
          "type": "uint256"
        }
      ],
      "name": "CreatePost",
      "type": "event"
    },
    {
      "anonymous": false,
      "inputs": [
        {
          "components": [
            {
              "internalType": "address",
              "name": "addr",
              "type": "address"
            },
            {
              "internalType": "string",
              "name": "message",
              "type": "string"
            },
            {
              "internalType": "uint256",
              "name": "timestamp",
              "type": "uint256"
            }
          ],
          "indexed": false,
          "internalType": "struct WavePortal.Post[]",
          "name": "posts",
          "type": "tuple[]"
        }
      ],
      "name": "DeletePost",
      "type": "event"
    },
    {
      "anonymous": false,
      "inputs": [
        {
          "components": [
            {
              "internalType": "address",
              "name": "addr",
              "type": "address"
            },
            {
              "internalType": "string",
              "name": "message",
              "type": "string"
            },
            {
              "internalType": "uint256",
              "name": "timestamp",
              "type": "uint256"
            }
          ],
          "indexed": false,
          "internalType": "struct WavePortal.Post[]",
          "name": "posts",
          "type": "tuple[]"
        }
      ],
      "name": "UpdatePost",
      "type": "event"
    },
    {
      "inputs": [
        {
          "internalType": "string",
          "name": "_message",
          "type": "string"
        }
      ],
      "name": "createPost",
      "outputs": [],
      "stateMutability": "nonpayable",
      "type": "function"
    },
    {
      "inputs": [
        {
          "internalType": "uint256",
          "name": "index",
          "type": "uint256"
        }
      ],
      "name": "deletePost",
      "outputs": [],
      "stateMutability": "nonpayable",
      "type": "function"
    },
    {
      "inputs": [],
      "name": "getAllPosts",
      "outputs": [
        {
          "components": [
            {
              "internalType": "address",
              "name": "addr",
              "type": "address"
            },
            {
              "internalType": "string",
              "name": "message",
              "type": "string"
            },
            {
              "internalType": "uint256",
              "name": "timestamp",
              "type": "uint256"
            }
          ],
          "internalType": "struct WavePortal.Post[]",
          "name": "",
          "type": "tuple[]"
        }
      ],
      "stateMutability": "view",
      "type": "function"
    },
    {
      "inputs": [
        {
          "internalType": "address",
          "name": "",
          "type": "address"
        }
      ],
      "name": "lastPostTimestamp",
      "outputs": [
        {
          "internalType": "uint256",
          "name": "",
          "type": "uint256"
        }
      ],
      "stateMutability": "view",
      "type": "function"
    },
    {
      "inputs": [
        {
          "internalType": "string",
          "name": "_message",
          "type": "string"
        },
        {
          "internalType": "uint256",
          "name": "index",
          "type": "uint256"
        }
      ],
      "name": "updatePost",
      "outputs": [],
      "stateMutability": "nonpayable",
      "type": "function"
    }
  ],
  "bytecode": "0x6080604052606444426200001491906200002c565b62000020919062000093565b60008190555062000129565b6000620000398262000089565b9150620000468362000089565b9250827fffffffffffffffffffffffffffffffffffffffffffffffffffffffffffffffff038211156200007e576200007d620000cb565b5b828201905092915050565b6000819050919050565b6000620000a08262000089565b9150620000ad8362000089565b925082620000c057620000bf620000fa565b5b828206905092915050565b7f4e487b7100000000000000000000000000000000000000000000000000000000600052601160045260246000fd5b7f4e487b7100000000000000000000000000000000000000000000000000000000600052601260045260246000fd5b6115f180620001396000396000f3fe608060405234801561001057600080fd5b50600436106100575760003560e01c80630448af071461005c578063094cd5ee146100785780633056110014610094578063c7303c61146100b2578063db86e57d146100ce575b600080fd5b61007660048036038101906100719190610c95565b6100fe565b005b610092600480360381019061008d9190610ced565b610271565b005b61009c610578565b6040516100a9919061112c565b60405180910390f35b6100cc60048036038101906100c79190610c50565b6106c9565b005b6100e860048036038101906100e39190610c27565b6109a5565b6040516100f59190611202565b60405180910390f35b803373ffffffffffffffffffffffffffffffffffffffff1660018281548110610150577f4e487b7100000000000000000000000000000000000000000000000000000000600052603260045260246000fd5b906000526020600020906003020160000160009054906101000a900473ffffffffffffffffffffffffffffffffffffffff1673ffffffffffffffffffffffffffffffffffffffff16146101d8576040517f08c379a00000000000000000000000000000000000000000000000000000000081526004016101cf906111c2565b60405180910390fd5b838360018481548110610214577f4e487b7100000000000000000000000000000000000000000000000000000000600052603260045260246000fd5b906000526020600020906003020160010191906102329291906109bd565b507f96300bab48becbab0b5c7ae823c0284d520a568d59afba95c3aa1fc4ff9dee056001604051610263919061114e565b60405180910390a150505050565b803373ffffffffffffffffffffffffffffffffffffffff16600182815481106102c3577f4e487b7100000000000000000000000000000000000000000000000000000000600052603260045260246000fd5b906000526020600020906003020160000160009054906101000a900473ffffffffffffffffffffffffffffffffffffffff1673ffffffffffffffffffffffffffffffffffffffff161461034b576040517f08c379a0000000000000000000000000000000000000000000000000000000008152600401610342906111c2565b60405180910390fd5b60008290505b600180805490506103629190611326565b8110156104ab576001808261037791906112d0565b815481106103ae577f4e487b7100000000000000000000000000000000000000000000000000000000600052603260045260246000fd5b9060005260206000209060030201600182815481106103f6577f4e487b7100000000000000000000000000000000000000000000000000000000600052603260045260246000fd5b90600052602060002090600302016000820160009054906101000a900473ffffffffffffffffffffffffffffffffffffffff168160000160006101000a81548173ffffffffffffffffffffffffffffffffffffffff021916908373ffffffffffffffffffffffffffffffffffffffff160217905550600182018160010190805461047f90611402565b61048a929190610a43565b506002820154816002015590505080806104a390611468565b915050610351565b5060018054806104e4577f4e487b7100000000000000000000000000000000000000000000000000000000600052603160045260246000fd5b6001900381819060005260206000209060030201600080820160006101000a81549073ffffffffffffffffffffffffffffffffffffffff02191690556001820160006105309190610ad0565b6002820160009055505090557f26b7059e86e2a5e093f90d994b199fda72742e814c6e451779e3c9c1475c871f600160405161056c919061114e565b60405180910390a15050565b60606001805480602002602001604051908101604052809291908181526020016000905b828210156106c057838290600052602060002090600302016040518060600160405290816000820160009054906101000a900473ffffffffffffffffffffffffffffffffffffffff1673ffffffffffffffffffffffffffffffffffffffff1673ffffffffffffffffffffffffffffffffffffffff16815260200160018201805461062590611402565b80601f016020809104026020016040519081016040528092919081815260200182805461065190611402565b801561069e5780601f106106735761010080835404028352916020019161069e565b820191906000526020600020905b81548152906001019060200180831161068157829003601f168201915b505050505081526020016002820154815250508152602001906001019061059c565b50505050905090565b42600260003373ffffffffffffffffffffffffffffffffffffffff1673ffffffffffffffffffffffffffffffffffffffff16815260200190815260200160002081905550600160405180606001604052803373ffffffffffffffffffffffffffffffffffffffff16815260200184848080601f016020809104026020016040519081016040528093929190818152602001838380828437600081840152601f19601f82011690508083019250505050505050815260200142815250908060018154018082558091505060019003906000526020600020906003020160009091909190915060008201518160000160006101000a81548173ffffffffffffffffffffffffffffffffffffffff021916908373ffffffffffffffffffffffffffffffffffffffff1602179055506020820151816001019080519060200190610810929190610b10565b506040820151816002015550506064600054444261082e91906112d0565b61083891906112d0565b61084291906114b1565b60008190555060326000541161094f576000655af3107a40009050478111156108a0576040517f08c379a0000000000000000000000000000000000000000000000000000000008152600401610897906111a2565b60405180910390fd5b60003373ffffffffffffffffffffffffffffffffffffffff16826040516108c690611117565b60006040518083038185875af1925050503d8060008114610903576040519150601f19603f3d011682016040523d82523d6000602084013e610908565b606091505b505090508061094c576040517f08c379a0000000000000000000000000000000000000000000000000000000008152600401610943906111e2565b60405180910390fd5b50505b3373ffffffffffffffffffffffffffffffffffffffff167f3b1e5d86093dc4411a3e39ecfa1c2cefff563da9d6c3b712d6442390fb56212783834260405161099993929190611170565b60405180910390a25050565b60026020528060005260406000206000915090505481565b8280546109c990611402565b90600052602060002090601f0160209004810192826109eb5760008555610a32565b82601f10610a0457803560ff1916838001178555610a32565b82800160010185558215610a32579182015b82811115610a31578235825591602001919060010190610a16565b5b509050610a3f9190610b96565b5090565b828054610a4f90611402565b90600052602060002090601f016020900481019282610a715760008555610abf565b82601f10610a825780548555610abf565b82800160010185558215610abf57600052602060002091601f016020900482015b82811115610abe578254825591600101919060010190610aa3565b5b509050610acc9190610b96565b5090565b508054610adc90611402565b6000825580601f10610aee5750610b0d565b601f016020900490600052602060002090810190610b0c9190610b96565b5b50565b828054610b1c90611402565b90600052602060002090601f016020900481019282610b3e5760008555610b85565b82601f10610b5757805160ff1916838001178555610b85565b82800160010185558215610b85579182015b82811115610b84578251825591602001919060010190610b69565b5b509050610b929190610b96565b5090565b5b80821115610baf576000816000905550600101610b97565b5090565b600081359050610bc28161158d565b92915050565b60008083601f840112610bda57600080fd5b8235905067ffffffffffffffff811115610bf357600080fd5b602083019150836001820283011115610c0b57600080fd5b9250929050565b600081359050610c21816115a4565b92915050565b600060208284031215610c3957600080fd5b6000610c4784828501610bb3565b91505092915050565b60008060208385031215610c6357600080fd5b600083013567ffffffffffffffff811115610c7d57600080fd5b610c8985828601610bc8565b92509250509250929050565b600080600060408486031215610caa57600080fd5b600084013567ffffffffffffffff811115610cc457600080fd5b610cd086828701610bc8565b93509350506020610ce386828701610c12565b9150509250925092565b600060208284031215610cff57600080fd5b6000610d0d84828501610c12565b91505092915050565b6000610d228383611042565b905092915050565b6000610d368383611092565b905092915050565b610d4781611384565b82525050565b6000610d5882611257565b610d628185611292565b935083602082028501610d748561121d565b8060005b85811015610db05784840389528151610d918582610d16565b9450610d9c83611278565b925060208a01995050600181019050610d78565b50829750879550505050505092915050565b6000610dcd82611262565b610dd78185611292565b935083602082028501610de98561122d565b8060005b85811015610e2457848403895281610e058582610d2a565b9450610e1083611285565b925060208a01995050600181019050610ded565b50829750879550505050505092915050565b6000610e4283856112bf565b9350610e4f8385846113c0565b610e588361156f565b840190509392505050565b6000610e6e8261126d565b610e7881856112ae565b9350610e888185602086016113cf565b610e918161156f565b840191505092915050565b60008154610ea981611402565b610eb381866112ae565b94506001821660008114610ece5760018114610ee057610f13565b60ff1983168652602086019350610f13565b610ee985611242565b60005b83811015610f0b57815481890152600182019150602081019050610eec565b808801955050505b50505092915050565b6000610f296024836112bf565b91507f436f6e747261637420646f6573206e6f74206861766520656e6f75676820667560008301527f6e64732e000000000000000000000000000000000000000000000000000000006020830152604082019050919050565b6000610f8f601a836112bf565b91507f596f7520646f206e6f742068617665207065726d697373696f6e0000000000006000830152602082019050919050565b6000610fcf6027836112bf565b91507f4661696c656420746f207769746864726177206d6f6e65792066726f6d20636f60008301527f6e74726163742e000000000000000000000000000000000000000000000000006020830152604082019050919050565b60006110356000836112a3565b9150600082019050919050565b600060608301600083015161105a6000860182610d3e565b50602083015184820360208601526110728282610e63565b915050604083015161108760408601826110f9565b508091505092915050565b60006060830160008084015490506110a981611434565b6110b66000870182610d3e565b506001840185830360208701526110cd8382610e9c565b925050600284015490506110e08161144e565b6110ed60408701826110f9565b50819250505092915050565b611102816113b6565b82525050565b611111816113b6565b82525050565b600061112282611028565b9150819050919050565b600060208201905081810360008301526111468184610d4d565b905092915050565b600060208201905081810360008301526111688184610dc2565b905092915050565b6000604082019050818103600083015261118b818587610e36565b905061119a6020830184611108565b949350505050565b600060208201905081810360008301526111bb81610f1c565b9050919050565b600060208201905081810360008301526111db81610f82565b9050919050565b600060208201905081810360008301526111fb81610fc2565b9050919050565b60006020820190506112176000830184611108565b92915050565b6000819050602082019050919050565b60008190508160005260206000209050919050565b60008190508160005260206000209050919050565b600081519050919050565b600081549050919050565b600081519050919050565b6000602082019050919050565b6000600382019050919050565b600082825260208201905092915050565b600081905092915050565b600082825260208201905092915050565b600082825260208201905092915050565b60006112db826113b6565b91506112e6836113b6565b9250827fffffffffffffffffffffffffffffffffffffffffffffffffffffffffffffffff0382111561131b5761131a6114e2565b5b828201905092915050565b6000611331826113b6565b915061133c836113b6565b92508282101561134f5761134e6114e2565b5b828203905092915050565b600073ffffffffffffffffffffffffffffffffffffffff82169050919050565b6000819050919050565b600061138f82611396565b9050919050565b600073ffffffffffffffffffffffffffffffffffffffff82169050919050565b6000819050919050565b82818337600083830152505050565b60005b838110156113ed5780820151818401526020810190506113d2565b838111156113fc576000848401525b50505050565b6000600282049050600182168061141a57607f821691505b6020821081141561142e5761142d611540565b5b50919050565b600061144761144283611580565b61135a565b9050919050565b600061146161145c83611580565b61137a565b9050919050565b6000611473826113b6565b91507fffffffffffffffffffffffffffffffffffffffffffffffffffffffffffffffff8214156114a6576114a56114e2565b5b600182019050919050565b60006114bc826113b6565b91506114c7836113b6565b9250826114d7576114d6611511565b5b828206905092915050565b7f4e487b7100000000000000000000000000000000000000000000000000000000600052601160045260246000fd5b7f4e487b7100000000000000000000000000000000000000000000000000000000600052601260045260246000fd5b7f4e487b7100000000000000000000000000000000000000000000000000000000600052602260045260246000fd5b6000601f19601f8301169050919050565b60008160001c9050919050565b61159681611384565b81146115a157600080fd5b50565b6115ad816113b6565b81146115b857600080fd5b5056fea2646970667358221220afd42b951d5ef86990fdd83cafe7ce3a50815ad0b015e9d8badb20da7d79573564736f6c63430008000033",
  "linkReferences": {},
  "deployedLinkReferences": {}
}