{
  "_format": "hh-sol-artifact-1",
  "contractName": "WavePortal",
  "sourceName": "contracts/WavePortal.sol",
  "abi": [
    {
      "inputs": [],
      "stateMutability": "payable",
      "type": "constructor"
    },
    {
      "anonymous": false,
      "inputs": [
        {
          "indexed": true,
          "internalType": "address",
          "name": "from",
          "type": "address"
        },
        {
          "indexed": false,
          "internalType": "string",
          "name": "message",
          "type": "string"
        },
        {
          "indexed": false,
          "internalType": "uint256",
          "name": "timestamp",
          "type": "uint256"
        }
      ],
      "name": "NewPost",
      "type": "event"
    },
    {
      "inputs": [],
      "name": "getAllPosts",
      "outputs": [
        {
          "components": [
            {
              "internalType": "address",
              "name": "addr",
              "type": "address"
            },
            {
              "internalType": "string",
              "name": "message",
              "type": "string"
            },
            {
              "internalType": "uint256",
              "name": "timestamp",
              "type": "uint256"
            }
          ],
          "internalType": "struct WavePortal.Post[]",
          "name": "",
          "type": "tuple[]"
        }
      ],
      "stateMutability": "view",
      "type": "function"
    },
    {
      "inputs": [],
      "name": "getTotalPosts",
      "outputs": [
        {
          "internalType": "uint256",
          "name": "",
          "type": "uint256"
        }
      ],
      "stateMutability": "view",
      "type": "function"
    },
    {
      "inputs": [
        {
          "internalType": "address",
          "name": "",
          "type": "address"
        }
      ],
      "name": "lastPostTimestamp",
      "outputs": [
        {
          "internalType": "uint256",
          "name": "",
          "type": "uint256"
        }
      ],
      "stateMutability": "view",
      "type": "function"
    },
    {
      "inputs": [
        {
          "internalType": "string",
          "name": "_message",
          "type": "string"
        }
      ],
      "name": "newPost",
      "outputs": [],
      "stateMutability": "nonpayable",
      "type": "function"
    }
  ],
  "bytecode": "0x6080604052606444426200001491906200002c565b62000020919062000093565b60018190555062000129565b6000620000398262000089565b9150620000468362000089565b9250827fffffffffffffffffffffffffffffffffffffffffffffffffffffffffffffffff038211156200007e576200007d620000cb565b5b828201905092915050565b6000819050919050565b6000620000a08262000089565b9150620000ad8362000089565b925082620000c057620000bf620000fa565b5b828206905092915050565b7f4e487b7100000000000000000000000000000000000000000000000000000000600052601160045260246000fd5b7f4e487b7100000000000000000000000000000000000000000000000000000000600052601260045260246000fd5b610dd980620001396000396000f3fe608060405234801561001057600080fd5b506004361061004c5760003560e01c806323bcaae914610051578063305611001461006d5780635fe226b41461008b578063db86e57d146100a9575b600080fd5b61006b600480360381019061006691906106cf565b6100d9565b005b610075610414565b60405161008291906109e9565b60405180910390f35b610093610565565b6040516100a09190610a9b565b60405180910390f35b6100c360048036038101906100be91906106a6565b61056e565b6040516100d09190610a9b565b60405180910390f35b42601e600360003373ffffffffffffffffffffffffffffffffffffffff1673ffffffffffffffffffffffffffffffffffffffff168152602001908152602001600020546101269190610b88565b10610166576040517f08c379a000000000000000000000000000000000000000000000000000000000815260040161015d90610a5b565b60405180910390fd5b42600360003373ffffffffffffffffffffffffffffffffffffffff1673ffffffffffffffffffffffffffffffffffffffff1681526020019081526020016000208190555060016000808282546101bc9190610b88565b92505081905550600260405180606001604052803373ffffffffffffffffffffffffffffffffffffffff16815260200183815260200142815250908060018154018082558091505060019003906000526020600020906003020160009091909190915060008201518160000160006101000a81548173ffffffffffffffffffffffffffffffffffffffff021916908373ffffffffffffffffffffffffffffffffffffffff1602179055506020820151816001019080519060200190610282929190610586565b50604082015181600201555050606460015444426102a09190610b88565b6102aa9190610b88565b6102b49190610c8e565b6001819055506032600154116103c1576000655af3107a4000905047811115610312576040517f08c379a000000000000000000000000000000000000000000000000000000000815260040161030990610a3b565b60405180910390fd5b60003373ffffffffffffffffffffffffffffffffffffffff1682604051610338906109d4565b60006040518083038185875af1925050503d8060008114610375576040519150601f19603f3d011682016040523d82523d6000602084013e61037a565b606091505b50509050806103be576040517f08c379a00000000000000000000000000000000000000000000000000000000081526004016103b590610a7b565b60405180910390fd5b50505b3373ffffffffffffffffffffffffffffffffffffffff167f4220cd30ee23a1a4323898d66dc49f1590b9863d860cf84c674c8614e18d496b8242604051610409929190610a0b565b60405180910390a250565b60606002805480602002602001604051908101604052809291908181526020016000905b8282101561055c57838290600052602060002090600302016040518060600160405290816000820160009054906101000a900473ffffffffffffffffffffffffffffffffffffffff1673ffffffffffffffffffffffffffffffffffffffff1673ffffffffffffffffffffffffffffffffffffffff1681526020016001820180546104c190610c5c565b80601f01602080910402602001604051908101604052809291908181526020018280546104ed90610c5c565b801561053a5780601f1061050f5761010080835404028352916020019161053a565b820191906000526020600020905b81548152906001019060200180831161051d57829003601f168201915b5050505050815260200160028201548152505081526020019060010190610438565b50505050905090565b60008054905090565b60036020528060005260406000206000915090505481565b82805461059290610c5c565b90600052602060002090601f0160209004810192826105b457600085556105fb565b82601f106105cd57805160ff19168380011785556105fb565b828001600101855582156105fb579182015b828111156105fa5782518255916020019190600101906105df565b5b509050610608919061060c565b5090565b5b8082111561062557600081600090555060010161060d565b5090565b600061063c61063784610ae7565b610ab6565b90508281526020810184848401111561065457600080fd5b61065f848285610c1a565b509392505050565b60008135905061067681610d8c565b92915050565b600082601f83011261068d57600080fd5b813561069d848260208601610629565b91505092915050565b6000602082840312156106b857600080fd5b60006106c684828501610667565b91505092915050565b6000602082840312156106e157600080fd5b600082013567ffffffffffffffff8111156106fb57600080fd5b6107078482850161067c565b91505092915050565b600061071c8383610966565b905092915050565b61072d81610bde565b82525050565b600061073e82610b27565b6107488185610b4a565b93508360208202850161075a85610b17565b8060005b8581101561079657848403895281516107778582610710565b945061078283610b3d565b925060208a0199505060018101905061075e565b50829750879550505050505092915050565b60006107b382610b32565b6107bd8185610b66565b93506107cd818560208601610c29565b6107d681610d7b565b840191505092915050565b60006107ec82610b32565b6107f68185610b77565b9350610806818560208601610c29565b61080f81610d7b565b840191505092915050565b6000610827602483610b77565b91507f436f6e747261637420646f6573206e6f74206861766520656e6f75676820667560008301527f6e64732e000000000000000000000000000000000000000000000000000000006020830152604082019050919050565b600061088d602983610b77565b91507f4d7573742077616974203330207365636f6e6473206265666f726520706f737460008301527f696e6720616761696e00000000000000000000000000000000000000000000006020830152604082019050919050565b60006108f3602783610b77565b91507f4661696c656420746f207769746864726177206d6f6e65792066726f6d20636f60008301527f6e74726163742e000000000000000000000000000000000000000000000000006020830152604082019050919050565b6000610959600083610b5b565b9150600082019050919050565b600060608301600083015161097e6000860182610724565b506020830151848203602086015261099682826107a8565b91505060408301516109ab60408601826109b6565b508091505092915050565b6109bf81610c10565b82525050565b6109ce81610c10565b82525050565b60006109df8261094c565b9150819050919050565b60006020820190508181036000830152610a038184610733565b905092915050565b60006040820190508181036000830152610a2581856107e1565b9050610a3460208301846109c5565b9392505050565b60006020820190508181036000830152610a548161081a565b9050919050565b60006020820190508181036000830152610a7481610880565b9050919050565b60006020820190508181036000830152610a94816108e6565b9050919050565b6000602082019050610ab060008301846109c5565b92915050565b6000604051905081810181811067ffffffffffffffff82111715610add57610adc610d4c565b5b8060405250919050565b600067ffffffffffffffff821115610b0257610b01610d4c565b5b601f19601f8301169050602081019050919050565b6000819050602082019050919050565b600081519050919050565b600081519050919050565b6000602082019050919050565b600082825260208201905092915050565b600081905092915050565b600082825260208201905092915050565b600082825260208201905092915050565b6000610b9382610c10565b9150610b9e83610c10565b9250827fffffffffffffffffffffffffffffffffffffffffffffffffffffffffffffffff03821115610bd357610bd2610cbf565b5b828201905092915050565b6000610be982610bf0565b9050919050565b600073ffffffffffffffffffffffffffffffffffffffff82169050919050565b6000819050919050565b82818337600083830152505050565b60005b83811015610c47578082015181840152602081019050610c2c565b83811115610c56576000848401525b50505050565b60006002820490506001821680610c7457607f821691505b60208210811415610c8857610c87610d1d565b5b50919050565b6000610c9982610c10565b9150610ca483610c10565b925082610cb457610cb3610cee565b5b828206905092915050565b7f4e487b7100000000000000000000000000000000000000000000000000000000600052601160045260246000fd5b7f4e487b7100000000000000000000000000000000000000000000000000000000600052601260045260246000fd5b7f4e487b7100000000000000000000000000000000000000000000000000000000600052602260045260246000fd5b7f4e487b7100000000000000000000000000000000000000000000000000000000600052604160045260246000fd5b6000601f19601f8301169050919050565b610d9581610bde565b8114610da057600080fd5b5056fea26469706673582212200182ff16b813fa122659a32e8c92bc6dc59389f7653ff825f5c6b2de78e3fb5664736f6c63430008000033",
  "linkReferences": {},
  "deployedLinkReferences": {}
}