{
  "_format": "hh-sol-artifact-1",
  "contractName": "WavePortal",
  "sourceName": "contracts/WavePortal.sol",
  "abi": [
    {
      "inputs": [],
      "stateMutability": "payable",
      "type": "constructor"
    },
    {
      "anonymous": false,
      "inputs": [
        {
          "components": [
            {
              "internalType": "address",
              "name": "addr",
              "type": "address"
            },
            {
              "internalType": "string",
              "name": "message",
              "type": "string"
            },
            {
              "internalType": "bool",
              "name": "isPostPinned",
              "type": "bool"
            },
            {
              "internalType": "uint32",
              "name": "id",
              "type": "uint32"
            },
            {
              "internalType": "uint256",
              "name": "timestamp",
              "type": "uint256"
            }
          ],
          "indexed": false,
          "internalType": "struct WavePortal.Post",
          "name": "",
          "type": "tuple"
        }
      ],
      "name": "CreatePost",
      "type": "event"
    },
    {
      "anonymous": false,
      "inputs": [
        {
          "components": [
            {
              "internalType": "address",
              "name": "addr",
              "type": "address"
            },
            {
              "internalType": "string",
              "name": "message",
              "type": "string"
            },
            {
              "internalType": "bool",
              "name": "isPostPinned",
              "type": "bool"
            },
            {
              "internalType": "uint32",
              "name": "id",
              "type": "uint32"
            },
            {
              "internalType": "uint256",
              "name": "timestamp",
              "type": "uint256"
            }
          ],
          "indexed": false,
          "internalType": "struct WavePortal.Post[]",
          "name": "posts",
          "type": "tuple[]"
        }
      ],
      "name": "DeletePost",
      "type": "event"
    },
    {
      "anonymous": false,
      "inputs": [
        {
          "components": [
            {
              "internalType": "address",
              "name": "addr",
              "type": "address"
            },
            {
              "internalType": "string",
              "name": "message",
              "type": "string"
            },
            {
              "internalType": "bool",
              "name": "isPostPinned",
              "type": "bool"
            },
            {
              "internalType": "uint32",
              "name": "id",
              "type": "uint32"
            },
            {
              "internalType": "uint256",
              "name": "timestamp",
              "type": "uint256"
            }
          ],
          "indexed": false,
          "internalType": "struct WavePortal.Post[]",
          "name": "posts",
          "type": "tuple[]"
        }
      ],
      "name": "UpdatePost",
      "type": "event"
    },
    {
      "inputs": [
        {
          "internalType": "string",
          "name": "_message",
          "type": "string"
        },
        {
          "internalType": "uint256",
          "name": "_payAmount",
          "type": "uint256"
        }
      ],
      "name": "createPost",
      "outputs": [],
      "stateMutability": "nonpayable",
      "type": "function"
    },
    {
      "inputs": [
        {
          "internalType": "uint256",
          "name": "_id",
          "type": "uint256"
        }
      ],
      "name": "deletePost",
      "outputs": [],
      "stateMutability": "nonpayable",
      "type": "function"
    },
    {
      "inputs": [],
      "name": "getAllPosts",
      "outputs": [
        {
          "components": [
            {
              "internalType": "address",
              "name": "addr",
              "type": "address"
            },
            {
              "internalType": "string",
              "name": "message",
              "type": "string"
            },
            {
              "internalType": "bool",
              "name": "isPostPinned",
              "type": "bool"
            },
            {
              "internalType": "uint32",
              "name": "id",
              "type": "uint32"
            },
            {
              "internalType": "uint256",
              "name": "timestamp",
              "type": "uint256"
            }
          ],
          "internalType": "struct WavePortal.Post[]",
          "name": "",
          "type": "tuple[]"
        }
      ],
      "stateMutability": "view",
      "type": "function"
    },
    {
      "inputs": [
        {
          "internalType": "address",
          "name": "",
          "type": "address"
        }
      ],
      "name": "lastPostTimestamp",
      "outputs": [
        {
          "internalType": "uint256",
          "name": "",
          "type": "uint256"
        }
      ],
      "stateMutability": "view",
      "type": "function"
    },
    {
      "inputs": [],
      "name": "owner",
      "outputs": [
        {
          "internalType": "address payable",
          "name": "",
          "type": "address"
        }
      ],
      "stateMutability": "view",
      "type": "function"
    },
    {
      "inputs": [
        {
          "internalType": "string",
          "name": "_message",
          "type": "string"
        },
        {
          "internalType": "uint256",
          "name": "_id",
          "type": "uint256"
        }
      ],
      "name": "updatePost",
      "outputs": [],
      "stateMutability": "nonpayable",
      "type": "function"
    }
  ],
  "bytecode": "0x6080604052606444426200001491906200006d565b620000209190620000d4565b60008190555033600160006101000a81548173ffffffffffffffffffffffffffffffffffffffff021916908373ffffffffffffffffffffffffffffffffffffffff1602179055506200016a565b60006200007a82620000ca565b91506200008783620000ca565b9250827fffffffffffffffffffffffffffffffffffffffffffffffffffffffffffffffff03821115620000bf57620000be6200010c565b5b828201905092915050565b6000819050919050565b6000620000e182620000ca565b9150620000ee83620000ca565b9250826200010157620001006200013b565b5b828206905092915050565b7f4e487b7100000000000000000000000000000000000000000000000000000000600052601160045260246000fd5b7f4e487b7100000000000000000000000000000000000000000000000000000000600052601260045260246000fd5b611db9806200017a6000396000f3fe608060405234801561001057600080fd5b50600436106100625760003560e01c80630448af0714610067578063094cd5ee146100835780631252cb481461009f57806330561100146100bb5780638da5cb5b146100d9578063db86e57d146100f7575b600080fd5b610081600480360381019061007c9190611103565b610127565b005b61009d6004803603810190610098919061115b565b6102c0565b005b6100b960048036038101906100b49190611103565b6106f7565b005b6100c3610a4a565b6040516100d091906117ec565b60405180910390f35b6100e1610bdc565b6040516100ee91906117d1565b60405180910390f35b610111600480360381019061010c91906110da565b610c02565b60405161011e9190611912565b60405180910390f35b803373ffffffffffffffffffffffffffffffffffffffff16600260046000848152602001908152602001600020548154811061018c577f4e487b7100000000000000000000000000000000000000000000000000000000600052603260045260246000fd5b906000526020600020906004020160000160009054906101000a900473ffffffffffffffffffffffffffffffffffffffff1673ffffffffffffffffffffffffffffffffffffffff1614610214576040517f08c379a000000000000000000000000000000000000000000000000000000000815260040161020b90611870565b60405180910390fd5b83836002600460008681526020019081526020016000205481548110610263577f4e487b7100000000000000000000000000000000000000000000000000000000600052603260045260246000fd5b90600052602060002090600402016001019190610281929190610e70565b507fa356e5c499efaa4162c1c139db50672d655b14a5a4c158ca23fc4bbf4d7377ba60026040516102b2919061180e565b60405180910390a150505050565b803373ffffffffffffffffffffffffffffffffffffffff166002600460008481526020019081526020016000205481548110610325577f4e487b7100000000000000000000000000000000000000000000000000000000600052603260045260246000fd5b906000526020600020906004020160000160009054906101000a900473ffffffffffffffffffffffffffffffffffffffff1673ffffffffffffffffffffffffffffffffffffffff16146103ad576040517f08c379a00000000000000000000000000000000000000000000000000000000081526004016103a490611870565b60405180910390fd5b6000600460008481526020019081526020016000205490505b60016002805490506103d89190611a36565b8110156105ff5760026001826103ee91906119e0565b81548110610425577f4e487b7100000000000000000000000000000000000000000000000000000000600052603260045260246000fd5b90600052602060002090600402016002828154811061046d577f4e487b7100000000000000000000000000000000000000000000000000000000600052603260045260246000fd5b90600052602060002090600402016000820160009054906101000a900473ffffffffffffffffffffffffffffffffffffffff168160000160006101000a81548173ffffffffffffffffffffffffffffffffffffffff021916908373ffffffffffffffffffffffffffffffffffffffff16021790555060018201816001019080546104f690611b4e565b610501929190610ef6565b506002820160009054906101000a900460ff168160020160006101000a81548160ff0219169083151502179055506002820160019054906101000a900463ffffffff168160020160016101000a81548163ffffffff021916908363ffffffff160217905550600382015481600301559050508060046000600284815481106105b2577f4e487b7100000000000000000000000000000000000000000000000000000000600052603260045260246000fd5b906000526020600020906004020160020160019054906101000a900463ffffffff1663ffffffff1681526020019081526020016000208190555080806105f790611be8565b9150506103c6565b506002805480610638577f4e487b7100000000000000000000000000000000000000000000000000000000600052603160045260246000fd5b6001900381819060005260206000209060040201600080820160006101000a81549073ffffffffffffffffffffffffffffffffffffffff02191690556001820160006106849190610f83565b6002820160006101000a81549060ff02191690556002820160016101000a81549063ffffffff02191690556003820160009055505090557f2b615450f9efb61d65ccd7aa39053d7662cbe910f26527e17bea99ecfb5b932060026040516106eb919061180e565b60405180910390a15050565b600080429050600081336040516020016107129291906117a5565b6040516020818303038152906040528051906020012060001c905081601e600360003373ffffffffffffffffffffffffffffffffffffffff1673ffffffffffffffffffffffffffffffffffffffff1681526020019081526020016000205461077a91906119e0565b106107ba576040517f08c379a00000000000000000000000000000000000000000000000000000000081526004016107b1906118b0565b60405180910390fd5b81600360003373ffffffffffffffffffffffffffffffffffffffff1673ffffffffffffffffffffffffffffffffffffffff16815260200190815260200160002081905550600280549050600460008363ffffffff168152602001908152602001600020819055506000841115610838576001925061083784610c1a565b5b610840610d3c565b60026040518060a001604052803373ffffffffffffffffffffffffffffffffffffffff16815260200188888080601f016020809104026020016040519081016040528093929190818152602001838380828437600081840152601f19601f82011690508083019250505050505050815260200185151581526020018363ffffffff16815260200184815250908060018154018082558091505060019003906000526020600020906004020160009091909190915060008201518160000160006101000a81548173ffffffffffffffffffffffffffffffffffffffff021916908373ffffffffffffffffffffffffffffffffffffffff1602179055506020820151816001019080519060200190610957929190610fc3565b5060408201518160020160006101000a81548160ff02191690831515021790555060608201518160020160016101000a81548163ffffffff021916908363ffffffff1602179055506080820151816003015550507f9837df7bc4a2478a6375e736d296003a78f4360d10887f06eca3b36d9918d2806002600460008463ffffffff1681526020019081526020016000205481548110610a1f577f4e487b7100000000000000000000000000000000000000000000000000000000600052603260045260246000fd5b9060005260206000209060040201604051610a3a91906118f0565b60405180910390a1505050505050565b60606002805480602002602001604051908101604052809291908181526020016000905b82821015610bd357838290600052602060002090600402016040518060a00160405290816000820160009054906101000a900473ffffffffffffffffffffffffffffffffffffffff1673ffffffffffffffffffffffffffffffffffffffff1673ffffffffffffffffffffffffffffffffffffffff168152602001600182018054610af790611b4e565b80601f0160208091040260200160405190810160405280929190818152602001828054610b2390611b4e565b8015610b705780601f10610b4557610100808354040283529160200191610b70565b820191906000526020600020905b815481529060010190602001808311610b5357829003601f168201915b505050505081526020016002820160009054906101000a900460ff161515151581526020016002820160019054906101000a900463ffffffff1663ffffffff1663ffffffff16815260200160038201548152505081526020019060010190610a6e565b50505050905090565b600160009054906101000a900473ffffffffffffffffffffffffffffffffffffffff1681565b60036020528060005260406000206000915090505481565b600066038d7ea4c68000905080821115610c69576040517f08c379a0000000000000000000000000000000000000000000000000000000008152600401610c6090611850565b60405180910390fd5b6000600160009054906101000a900473ffffffffffffffffffffffffffffffffffffffff1673ffffffffffffffffffffffffffffffffffffffff1683604051610cb190611790565b60006040518083038185875af1925050503d8060008114610cee576040519150601f19603f3d011682016040523d82523d6000602084013e610cf3565b606091505b5050905080610d37576040517f08c379a0000000000000000000000000000000000000000000000000000000008152600401610d2e90611890565b60405180910390fd5b505050565b60646000544442610d4d91906119e0565b610d5791906119e0565b610d619190611c5f565b600081905550603260005411610e6e576000655af3107a4000905047811115610dbf576040517f08c379a0000000000000000000000000000000000000000000000000000000008152600401610db690611830565b60405180910390fd5b60003373ffffffffffffffffffffffffffffffffffffffff1682604051610de590611790565b60006040518083038185875af1925050503d8060008114610e22576040519150601f19603f3d011682016040523d82523d6000602084013e610e27565b606091505b5050905080610e6b576040517f08c379a0000000000000000000000000000000000000000000000000000000008152600401610e62906118d0565b60405180910390fd5b50505b565b828054610e7c90611b4e565b90600052602060002090601f016020900481019282610e9e5760008555610ee5565b82601f10610eb757803560ff1916838001178555610ee5565b82800160010185558215610ee5579182015b82811115610ee4578235825591602001919060010190610ec9565b5b509050610ef29190611049565b5090565b828054610f0290611b4e565b90600052602060002090601f016020900481019282610f245760008555610f72565b82601f10610f355780548555610f72565b82800160010185558215610f7257600052602060002091601f016020900482015b82811115610f71578254825591600101919060010190610f56565b5b509050610f7f9190611049565b5090565b508054610f8f90611b4e565b6000825580601f10610fa15750610fc0565b601f016020900490600052602060002090810190610fbf9190611049565b5b50565b828054610fcf90611b4e565b90600052602060002090601f016020900481019282610ff15760008555611038565b82601f1061100a57805160ff1916838001178555611038565b82800160010185558215611038579182015b8281111561103757825182559160200191906001019061101c565b5b5090506110459190611049565b5090565b5b8082111561106257600081600090555060010161104a565b5090565b60008135905061107581611d55565b92915050565b60008083601f84011261108d57600080fd5b8235905067ffffffffffffffff8111156110a657600080fd5b6020830191508360018202830111156110be57600080fd5b9250929050565b6000813590506110d481611d6c565b92915050565b6000602082840312156110ec57600080fd5b60006110fa84828501611066565b91505092915050565b60008060006040848603121561111857600080fd5b600084013567ffffffffffffffff81111561113257600080fd5b61113e8682870161107b565b93509350506020611151868287016110c5565b9150509250925092565b60006020828403121561116d57600080fd5b600061117b848285016110c5565b91505092915050565b6000611190838361159e565b905092915050565b60006111a48383611614565b905092915050565b6111b581611ac3565b82525050565b6111c481611ab1565b82525050565b6111db6111d682611ab1565b611c31565b82525050565b60006111ec82611967565b6111f681856119a2565b9350836020820285016112088561192d565b8060005b8581101561124457848403895281516112258582611184565b945061123083611988565b925060208a0199505060018101905061120c565b50829750879550505050505092915050565b600061126182611972565b61126b81856119a2565b93508360208202850161127d8561193d565b8060005b858110156112b8578484038952816112998582611198565b94506112a483611995565b925060208a01995050600181019050611281565b50829750879550505050505092915050565b6112d381611ad5565b82525050565b60006112e48261197d565b6112ee81856119be565b93506112fe818560208601611b1b565b61130781611d1d565b840191505092915050565b6000815461131f81611b4e565b61132981866119be565b94506001821660008114611344576001811461135657611389565b60ff1983168652602086019350611389565b61135f85611952565b60005b8381101561138157815481890152600182019150602081019050611362565b808801955050505b50505092915050565b600061139f6024836119cf565b91507f436f6e747261637420646f6573206e6f74206861766520656e6f75676820667560008301527f6e64732e000000000000000000000000000000000000000000000000000000006020830152604082019050919050565b6000611405601b836119cf565b91507f496e73756666696369656e742045746865722070726f766964656400000000006000830152602082019050919050565b6000611445601a836119cf565b91507f596f7520646f206e6f742068617665207065726d697373696f6e0000000000006000830152602082019050919050565b60006114856014836119cf565b91507f4661696c656420746f2073656e64206d6f6e65790000000000000000000000006000830152602082019050919050565b60006114c56029836119cf565b91507f4d7573742077616974203330207365636f6e6473206265666f726520706f737460008301527f696e6720616761696e00000000000000000000000000000000000000000000006020830152604082019050919050565b600061152b6027836119cf565b91507f4661696c656420746f207769746864726177206d6f6e65792066726f6d20636f60008301527f6e74726163742e000000000000000000000000000000000000000000000000006020830152604082019050919050565b60006115916000836119b3565b9150600082019050919050565b600060a0830160008301516115b660008601826111bb565b50602083015184820360208601526115ce82826112d9565b91505060408301516115e360408601826112ca565b5060608301516115f66060860182611781565b506080830151611609608086018261174c565b508091505092915050565b600060a08301600080840154905061162b81611b80565b61163860008701826111bb565b5060018401858303602087015261164f8382611312565b9250506002840154905061166281611b9a565b61166f60408701826112ca565b5061167981611bce565b6116866060870182611781565b506003840154905061169781611bb4565b6116a4608087018261174c565b50819250505092915050565b600060a0830160008084015490506116c781611b80565b6116d460008701826111bb565b506001840185830360208701526116eb8382611312565b925050600284015490506116fe81611b9a565b61170b60408701826112ca565b5061171581611bce565b6117226060870182611781565b506003840154905061173381611bb4565b611740608087018261174c565b50819250505092915050565b61175581611b01565b82525050565b61176481611b01565b82525050565b61177b61177682611b01565b611c55565b82525050565b61178a81611b0b565b82525050565b600061179b82611584565b9150819050919050565b60006117b1828561176a565b6020820191506117c182846111ca565b6014820191508190509392505050565b60006020820190506117e660008301846111ac565b92915050565b6000602082019050818103600083015261180681846111e1565b905092915050565b600060208201905081810360008301526118288184611256565b905092915050565b6000602082019050818103600083015261184981611392565b9050919050565b60006020820190508181036000830152611869816113f8565b9050919050565b6000602082019050818103600083015261188981611438565b9050919050565b600060208201905081810360008301526118a981611478565b9050919050565b600060208201905081810360008301526118c9816114b8565b9050919050565b600060208201905081810360008301526118e98161151e565b9050919050565b6000602082019050818103600083015261190a81846116b0565b905092915050565b6000602082019050611927600083018461175b565b92915050565b6000819050602082019050919050565b60008190508160005260206000209050919050565b60008190508160005260206000209050919050565b600081519050919050565b600081549050919050565b600081519050919050565b6000602082019050919050565b6000600482019050919050565b600082825260208201905092915050565b600081905092915050565b600082825260208201905092915050565b600082825260208201905092915050565b60006119eb82611b01565b91506119f683611b01565b9250827fffffffffffffffffffffffffffffffffffffffffffffffffffffffffffffffff03821115611a2b57611a2a611c90565b5b828201905092915050565b6000611a4182611b01565b9150611a4c83611b01565b925082821015611a5f57611a5e611c90565b5b828203905092915050565b600073ffffffffffffffffffffffffffffffffffffffff82169050919050565b600060ff82169050919050565b6000819050919050565b600063ffffffff82169050919050565b6000611abc82611ae1565b9050919050565b6000611ace82611ae1565b9050919050565b60008115159050919050565b600073ffffffffffffffffffffffffffffffffffffffff82169050919050565b6000819050919050565b600063ffffffff82169050919050565b60005b83811015611b39578082015181840152602081019050611b1e565b83811115611b48576000848401525b50505050565b60006002820490506001821680611b6657607f821691505b60208210811415611b7a57611b79611cee565b5b50919050565b6000611b93611b8e83611d3b565b611a6a565b9050919050565b6000611bad611ba883611d3b565b611a8a565b9050919050565b6000611bc7611bc283611d3b565b611a97565b9050919050565b6000611be1611bdc83611d48565b611aa1565b9050919050565b6000611bf382611b01565b91507fffffffffffffffffffffffffffffffffffffffffffffffffffffffffffffffff821415611c2657611c25611c90565b5b600182019050919050565b6000611c3c82611c43565b9050919050565b6000611c4e82611d2e565b9050919050565b6000819050919050565b6000611c6a82611b01565b9150611c7583611b01565b925082611c8557611c84611cbf565b5b828206905092915050565b7f4e487b7100000000000000000000000000000000000000000000000000000000600052601160045260246000fd5b7f4e487b7100000000000000000000000000000000000000000000000000000000600052601260045260246000fd5b7f4e487b7100000000000000000000000000000000000000000000000000000000600052602260045260246000fd5b6000601f19601f8301169050919050565b60008160601b9050919050565b60008160001c9050919050565b60008160081c9050919050565b611d5e81611ab1565b8114611d6957600080fd5b50565b611d7581611b01565b8114611d8057600080fd5b5056fea2646970667358221220939973f0195420d3e8a3696c93e6409c7a65412f3a4451ccd7c9b5d0703e5e0164736f6c63430008000033",
  "linkReferences": {},
  "deployedLinkReferences": {}
}