{
  "_format": "hh-sol-artifact-1",
  "contractName": "WavePortal",
  "sourceName": "contracts/WavePortal.sol",
  "abi": [
    {
      "inputs": [],
      "stateMutability": "payable",
      "type": "constructor"
    },
    {
      "anonymous": false,
      "inputs": [
        {
          "components": [
            {
              "internalType": "address",
              "name": "addr",
              "type": "address"
            },
            {
              "internalType": "string",
              "name": "message",
              "type": "string"
            },
            {
              "internalType": "bool",
              "name": "pinMessage",
              "type": "bool"
            },
            {
              "internalType": "uint32",
              "name": "id",
              "type": "uint32"
            },
            {
              "internalType": "uint256",
              "name": "timestamp",
              "type": "uint256"
            }
          ],
          "indexed": false,
          "internalType": "struct WavePortal.Post",
          "name": "",
          "type": "tuple"
        }
      ],
      "name": "CreatePost",
      "type": "event"
    },
    {
      "anonymous": false,
      "inputs": [
        {
          "components": [
            {
              "internalType": "address",
              "name": "addr",
              "type": "address"
            },
            {
              "internalType": "string",
              "name": "message",
              "type": "string"
            },
            {
              "internalType": "bool",
              "name": "pinMessage",
              "type": "bool"
            },
            {
              "internalType": "uint32",
              "name": "id",
              "type": "uint32"
            },
            {
              "internalType": "uint256",
              "name": "timestamp",
              "type": "uint256"
            }
          ],
          "indexed": false,
          "internalType": "struct WavePortal.Post[]",
          "name": "posts",
          "type": "tuple[]"
        }
      ],
      "name": "DeletePost",
      "type": "event"
    },
    {
      "anonymous": false,
      "inputs": [
        {
          "components": [
            {
              "internalType": "address",
              "name": "addr",
              "type": "address"
            },
            {
              "internalType": "string",
              "name": "message",
              "type": "string"
            },
            {
              "internalType": "bool",
              "name": "pinMessage",
              "type": "bool"
            },
            {
              "internalType": "uint32",
              "name": "id",
              "type": "uint32"
            },
            {
              "internalType": "uint256",
              "name": "timestamp",
              "type": "uint256"
            }
          ],
          "indexed": false,
          "internalType": "struct WavePortal.Post[]",
          "name": "posts",
          "type": "tuple[]"
        }
      ],
      "name": "UpdatePost",
      "type": "event"
    },
    {
      "inputs": [
        {
          "internalType": "string",
          "name": "_message",
          "type": "string"
        },
        {
          "internalType": "uint256",
          "name": "_payAmount",
          "type": "uint256"
        }
      ],
      "name": "createPost",
      "outputs": [],
      "stateMutability": "nonpayable",
      "type": "function"
    },
    {
      "inputs": [
        {
          "internalType": "uint256",
          "name": "_id",
          "type": "uint256"
        }
      ],
      "name": "deletePost",
      "outputs": [],
      "stateMutability": "nonpayable",
      "type": "function"
    },
    {
      "inputs": [],
      "name": "getAllPosts",
      "outputs": [
        {
          "components": [
            {
              "internalType": "address",
              "name": "addr",
              "type": "address"
            },
            {
              "internalType": "string",
              "name": "message",
              "type": "string"
            },
            {
              "internalType": "bool",
              "name": "pinMessage",
              "type": "bool"
            },
            {
              "internalType": "uint32",
              "name": "id",
              "type": "uint32"
            },
            {
              "internalType": "uint256",
              "name": "timestamp",
              "type": "uint256"
            }
          ],
          "internalType": "struct WavePortal.Post[]",
          "name": "",
          "type": "tuple[]"
        }
      ],
      "stateMutability": "view",
      "type": "function"
    },
    {
      "inputs": [
        {
          "internalType": "address",
          "name": "",
          "type": "address"
        }
      ],
      "name": "lastPostTimestamp",
      "outputs": [
        {
          "internalType": "uint256",
          "name": "",
          "type": "uint256"
        }
      ],
      "stateMutability": "view",
      "type": "function"
    },
    {
      "inputs": [],
      "name": "owner",
      "outputs": [
        {
          "internalType": "address payable",
          "name": "",
          "type": "address"
        }
      ],
      "stateMutability": "view",
      "type": "function"
    },
    {
      "inputs": [
        {
          "internalType": "string",
          "name": "_message",
          "type": "string"
        },
        {
          "internalType": "uint256",
          "name": "_id",
          "type": "uint256"
        }
      ],
      "name": "updatePost",
      "outputs": [],
      "stateMutability": "nonpayable",
      "type": "function"
    }
  ],
  "bytecode": "0x6080604052606444426200001491906200006d565b620000209190620000d4565b60008190555033600160006101000a81548173ffffffffffffffffffffffffffffffffffffffff021916908373ffffffffffffffffffffffffffffffffffffffff1602179055506200016a565b60006200007a82620000ca565b91506200008783620000ca565b9250827fffffffffffffffffffffffffffffffffffffffffffffffffffffffffffffffff03821115620000bf57620000be6200010c565b5b828201905092915050565b6000819050919050565b6000620000e182620000ca565b9150620000ee83620000ca565b9250826200010157620001006200013b565b5b828206905092915050565b7f4e487b7100000000000000000000000000000000000000000000000000000000600052601160045260246000fd5b7f4e487b7100000000000000000000000000000000000000000000000000000000600052601260045260246000fd5b611dba806200017a6000396000f3fe608060405234801561001057600080fd5b50600436106100625760003560e01c80630448af0714610067578063094cd5ee146100835780631252cb481461009f57806330561100146100bb5780638da5cb5b146100d9578063db86e57d146100f7575b600080fd5b610081600480360381019061007c9190611104565b610127565b005b61009d6004803603810190610098919061115c565b6102c0565b005b6100b960048036038101906100b49190611104565b6106f7565b005b6100c3610a4a565b6040516100d091906117ed565b60405180910390f35b6100e1610bdc565b6040516100ee91906117d2565b60405180910390f35b610111600480360381019061010c91906110db565b610c02565b60405161011e9190611913565b60405180910390f35b803373ffffffffffffffffffffffffffffffffffffffff16600260046000848152602001908152602001600020548154811061018c577f4e487b7100000000000000000000000000000000000000000000000000000000600052603260045260246000fd5b906000526020600020906004020160000160009054906101000a900473ffffffffffffffffffffffffffffffffffffffff1673ffffffffffffffffffffffffffffffffffffffff1614610214576040517f08c379a000000000000000000000000000000000000000000000000000000000815260040161020b90611871565b60405180910390fd5b83836002600460008681526020019081526020016000205481548110610263577f4e487b7100000000000000000000000000000000000000000000000000000000600052603260045260246000fd5b90600052602060002090600402016001019190610281929190610e71565b507fa356e5c499efaa4162c1c139db50672d655b14a5a4c158ca23fc4bbf4d7377ba60026040516102b2919061180f565b60405180910390a150505050565b803373ffffffffffffffffffffffffffffffffffffffff166002600460008481526020019081526020016000205481548110610325577f4e487b7100000000000000000000000000000000000000000000000000000000600052603260045260246000fd5b906000526020600020906004020160000160009054906101000a900473ffffffffffffffffffffffffffffffffffffffff1673ffffffffffffffffffffffffffffffffffffffff16146103ad576040517f08c379a00000000000000000000000000000000000000000000000000000000081526004016103a490611871565b60405180910390fd5b6000600460008481526020019081526020016000205490505b60016002805490506103d89190611a37565b8110156105ff5760026001826103ee91906119e1565b81548110610425577f4e487b7100000000000000000000000000000000000000000000000000000000600052603260045260246000fd5b90600052602060002090600402016002828154811061046d577f4e487b7100000000000000000000000000000000000000000000000000000000600052603260045260246000fd5b90600052602060002090600402016000820160009054906101000a900473ffffffffffffffffffffffffffffffffffffffff168160000160006101000a81548173ffffffffffffffffffffffffffffffffffffffff021916908373ffffffffffffffffffffffffffffffffffffffff16021790555060018201816001019080546104f690611b4f565b610501929190610ef7565b506002820160009054906101000a900460ff168160020160006101000a81548160ff0219169083151502179055506002820160019054906101000a900463ffffffff168160020160016101000a81548163ffffffff021916908363ffffffff160217905550600382015481600301559050508060046000600284815481106105b2577f4e487b7100000000000000000000000000000000000000000000000000000000600052603260045260246000fd5b906000526020600020906004020160020160019054906101000a900463ffffffff1663ffffffff1681526020019081526020016000208190555080806105f790611be9565b9150506103c6565b506002805480610638577f4e487b7100000000000000000000000000000000000000000000000000000000600052603160045260246000fd5b6001900381819060005260206000209060040201600080820160006101000a81549073ffffffffffffffffffffffffffffffffffffffff02191690556001820160006106849190610f84565b6002820160006101000a81549060ff02191690556002820160016101000a81549063ffffffff02191690556003820160009055505090557f2b615450f9efb61d65ccd7aa39053d7662cbe910f26527e17bea99ecfb5b932060026040516106eb919061180f565b60405180910390a15050565b600080429050600081336040516020016107129291906117a6565b6040516020818303038152906040528051906020012060001c905081601e600360003373ffffffffffffffffffffffffffffffffffffffff1673ffffffffffffffffffffffffffffffffffffffff1681526020019081526020016000205461077a91906119e1565b106107ba576040517f08c379a00000000000000000000000000000000000000000000000000000000081526004016107b1906118b1565b60405180910390fd5b81600360003373ffffffffffffffffffffffffffffffffffffffff1673ffffffffffffffffffffffffffffffffffffffff16815260200190815260200160002081905550600280549050600460008363ffffffff168152602001908152602001600020819055506000841115610838576001925061083784610c1a565b5b610840610d3d565b60026040518060a001604052803373ffffffffffffffffffffffffffffffffffffffff16815260200188888080601f016020809104026020016040519081016040528093929190818152602001838380828437600081840152601f19601f82011690508083019250505050505050815260200185151581526020018363ffffffff16815260200184815250908060018154018082558091505060019003906000526020600020906004020160009091909190915060008201518160000160006101000a81548173ffffffffffffffffffffffffffffffffffffffff021916908373ffffffffffffffffffffffffffffffffffffffff1602179055506020820151816001019080519060200190610957929190610fc4565b5060408201518160020160006101000a81548160ff02191690831515021790555060608201518160020160016101000a81548163ffffffff021916908363ffffffff1602179055506080820151816003015550507f9837df7bc4a2478a6375e736d296003a78f4360d10887f06eca3b36d9918d2806002600460008463ffffffff1681526020019081526020016000205481548110610a1f577f4e487b7100000000000000000000000000000000000000000000000000000000600052603260045260246000fd5b9060005260206000209060040201604051610a3a91906118f1565b60405180910390a1505050505050565b60606002805480602002602001604051908101604052809291908181526020016000905b82821015610bd357838290600052602060002090600402016040518060a00160405290816000820160009054906101000a900473ffffffffffffffffffffffffffffffffffffffff1673ffffffffffffffffffffffffffffffffffffffff1673ffffffffffffffffffffffffffffffffffffffff168152602001600182018054610af790611b4f565b80601f0160208091040260200160405190810160405280929190818152602001828054610b2390611b4f565b8015610b705780601f10610b4557610100808354040283529160200191610b70565b820191906000526020600020905b815481529060010190602001808311610b5357829003601f168201915b505050505081526020016002820160009054906101000a900460ff161515151581526020016002820160019054906101000a900463ffffffff1663ffffffff1663ffffffff16815260200160038201548152505081526020019060010190610a6e565b50505050905090565b600160009054906101000a900473ffffffffffffffffffffffffffffffffffffffff1681565b60036020528060005260406000206000915090505481565b600067016345785d8a0000905080821115610c6a576040517f08c379a0000000000000000000000000000000000000000000000000000000008152600401610c6190611851565b60405180910390fd5b6000600160009054906101000a900473ffffffffffffffffffffffffffffffffffffffff1673ffffffffffffffffffffffffffffffffffffffff1683604051610cb290611791565b60006040518083038185875af1925050503d8060008114610cef576040519150601f19603f3d011682016040523d82523d6000602084013e610cf4565b606091505b5050905080610d38576040517f08c379a0000000000000000000000000000000000000000000000000000000008152600401610d2f90611891565b60405180910390fd5b505050565b60646000544442610d4e91906119e1565b610d5891906119e1565b610d629190611c60565b600081905550603260005411610e6f576000655af3107a4000905047811115610dc0576040517f08c379a0000000000000000000000000000000000000000000000000000000008152600401610db790611831565b60405180910390fd5b60003373ffffffffffffffffffffffffffffffffffffffff1682604051610de690611791565b60006040518083038185875af1925050503d8060008114610e23576040519150601f19603f3d011682016040523d82523d6000602084013e610e28565b606091505b5050905080610e6c576040517f08c379a0000000000000000000000000000000000000000000000000000000008152600401610e63906118d1565b60405180910390fd5b50505b565b828054610e7d90611b4f565b90600052602060002090601f016020900481019282610e9f5760008555610ee6565b82601f10610eb857803560ff1916838001178555610ee6565b82800160010185558215610ee6579182015b82811115610ee5578235825591602001919060010190610eca565b5b509050610ef3919061104a565b5090565b828054610f0390611b4f565b90600052602060002090601f016020900481019282610f255760008555610f73565b82601f10610f365780548555610f73565b82800160010185558215610f7357600052602060002091601f016020900482015b82811115610f72578254825591600101919060010190610f57565b5b509050610f80919061104a565b5090565b508054610f9090611b4f565b6000825580601f10610fa25750610fc1565b601f016020900490600052602060002090810190610fc0919061104a565b5b50565b828054610fd090611b4f565b90600052602060002090601f016020900481019282610ff25760008555611039565b82601f1061100b57805160ff1916838001178555611039565b82800160010185558215611039579182015b8281111561103857825182559160200191906001019061101d565b5b509050611046919061104a565b5090565b5b8082111561106357600081600090555060010161104b565b5090565b60008135905061107681611d56565b92915050565b60008083601f84011261108e57600080fd5b8235905067ffffffffffffffff8111156110a757600080fd5b6020830191508360018202830111156110bf57600080fd5b9250929050565b6000813590506110d581611d6d565b92915050565b6000602082840312156110ed57600080fd5b60006110fb84828501611067565b91505092915050565b60008060006040848603121561111957600080fd5b600084013567ffffffffffffffff81111561113357600080fd5b61113f8682870161107c565b93509350506020611152868287016110c6565b9150509250925092565b60006020828403121561116e57600080fd5b600061117c848285016110c6565b91505092915050565b6000611191838361159f565b905092915050565b60006111a58383611615565b905092915050565b6111b681611ac4565b82525050565b6111c581611ab2565b82525050565b6111dc6111d782611ab2565b611c32565b82525050565b60006111ed82611968565b6111f781856119a3565b9350836020820285016112098561192e565b8060005b8581101561124557848403895281516112268582611185565b945061123183611989565b925060208a0199505060018101905061120d565b50829750879550505050505092915050565b600061126282611973565b61126c81856119a3565b93508360208202850161127e8561193e565b8060005b858110156112b95784840389528161129a8582611199565b94506112a583611996565b925060208a01995050600181019050611282565b50829750879550505050505092915050565b6112d481611ad6565b82525050565b60006112e58261197e565b6112ef81856119bf565b93506112ff818560208601611b1c565b61130881611d1e565b840191505092915050565b6000815461132081611b4f565b61132a81866119bf565b9450600182166000811461134557600181146113575761138a565b60ff198316865260208601935061138a565b61136085611953565b60005b8381101561138257815481890152600182019150602081019050611363565b808801955050505b50505092915050565b60006113a06024836119d0565b91507f436f6e747261637420646f6573206e6f74206861766520656e6f75676820667560008301527f6e64732e000000000000000000000000000000000000000000000000000000006020830152604082019050919050565b6000611406601b836119d0565b91507f496e73756666696369656e742045746865722070726f766964656400000000006000830152602082019050919050565b6000611446601a836119d0565b91507f596f7520646f206e6f742068617665207065726d697373696f6e0000000000006000830152602082019050919050565b60006114866014836119d0565b91507f4661696c656420746f2073656e64206d6f6e65790000000000000000000000006000830152602082019050919050565b60006114c66029836119d0565b91507f4d7573742077616974203330207365636f6e6473206265666f726520706f737460008301527f696e6720616761696e00000000000000000000000000000000000000000000006020830152604082019050919050565b600061152c6027836119d0565b91507f4661696c656420746f207769746864726177206d6f6e65792066726f6d20636f60008301527f6e74726163742e000000000000000000000000000000000000000000000000006020830152604082019050919050565b60006115926000836119b4565b9150600082019050919050565b600060a0830160008301516115b760008601826111bc565b50602083015184820360208601526115cf82826112da565b91505060408301516115e460408601826112cb565b5060608301516115f76060860182611782565b50608083015161160a608086018261174d565b508091505092915050565b600060a08301600080840154905061162c81611b81565b61163960008701826111bc565b506001840185830360208701526116508382611313565b9250506002840154905061166381611b9b565b61167060408701826112cb565b5061167a81611bcf565b6116876060870182611782565b506003840154905061169881611bb5565b6116a5608087018261174d565b50819250505092915050565b600060a0830160008084015490506116c881611b81565b6116d560008701826111bc565b506001840185830360208701526116ec8382611313565b925050600284015490506116ff81611b9b565b61170c60408701826112cb565b5061171681611bcf565b6117236060870182611782565b506003840154905061173481611bb5565b611741608087018261174d565b50819250505092915050565b61175681611b02565b82525050565b61176581611b02565b82525050565b61177c61177782611b02565b611c56565b82525050565b61178b81611b0c565b82525050565b600061179c82611585565b9150819050919050565b60006117b2828561176b565b6020820191506117c282846111cb565b6014820191508190509392505050565b60006020820190506117e760008301846111ad565b92915050565b6000602082019050818103600083015261180781846111e2565b905092915050565b600060208201905081810360008301526118298184611257565b905092915050565b6000602082019050818103600083015261184a81611393565b9050919050565b6000602082019050818103600083015261186a816113f9565b9050919050565b6000602082019050818103600083015261188a81611439565b9050919050565b600060208201905081810360008301526118aa81611479565b9050919050565b600060208201905081810360008301526118ca816114b9565b9050919050565b600060208201905081810360008301526118ea8161151f565b9050919050565b6000602082019050818103600083015261190b81846116b1565b905092915050565b6000602082019050611928600083018461175c565b92915050565b6000819050602082019050919050565b60008190508160005260206000209050919050565b60008190508160005260206000209050919050565b600081519050919050565b600081549050919050565b600081519050919050565b6000602082019050919050565b6000600482019050919050565b600082825260208201905092915050565b600081905092915050565b600082825260208201905092915050565b600082825260208201905092915050565b60006119ec82611b02565b91506119f783611b02565b9250827fffffffffffffffffffffffffffffffffffffffffffffffffffffffffffffffff03821115611a2c57611a2b611c91565b5b828201905092915050565b6000611a4282611b02565b9150611a4d83611b02565b925082821015611a6057611a5f611c91565b5b828203905092915050565b600073ffffffffffffffffffffffffffffffffffffffff82169050919050565b600060ff82169050919050565b6000819050919050565b600063ffffffff82169050919050565b6000611abd82611ae2565b9050919050565b6000611acf82611ae2565b9050919050565b60008115159050919050565b600073ffffffffffffffffffffffffffffffffffffffff82169050919050565b6000819050919050565b600063ffffffff82169050919050565b60005b83811015611b3a578082015181840152602081019050611b1f565b83811115611b49576000848401525b50505050565b60006002820490506001821680611b6757607f821691505b60208210811415611b7b57611b7a611cef565b5b50919050565b6000611b94611b8f83611d3c565b611a6b565b9050919050565b6000611bae611ba983611d3c565b611a8b565b9050919050565b6000611bc8611bc383611d3c565b611a98565b9050919050565b6000611be2611bdd83611d49565b611aa2565b9050919050565b6000611bf482611b02565b91507fffffffffffffffffffffffffffffffffffffffffffffffffffffffffffffffff821415611c2757611c26611c91565b5b600182019050919050565b6000611c3d82611c44565b9050919050565b6000611c4f82611d2f565b9050919050565b6000819050919050565b6000611c6b82611b02565b9150611c7683611b02565b925082611c8657611c85611cc0565b5b828206905092915050565b7f4e487b7100000000000000000000000000000000000000000000000000000000600052601160045260246000fd5b7f4e487b7100000000000000000000000000000000000000000000000000000000600052601260045260246000fd5b7f4e487b7100000000000000000000000000000000000000000000000000000000600052602260045260246000fd5b6000601f19601f8301169050919050565b60008160601b9050919050565b60008160001c9050919050565b60008160081c9050919050565b611d5f81611ab2565b8114611d6a57600080fd5b50565b611d7681611b02565b8114611d8157600080fd5b5056fea264697066735822122008879d5b22aa034106e9cf9c1f0c0db82a0374a2238646f798c5caccac2ea30364736f6c63430008000033",
  "linkReferences": {},
  "deployedLinkReferences": {}
}