{
  "_format": "hh-sol-artifact-1",
  "contractName": "WavePortal",
  "sourceName": "contracts/WavePortal.sol",
  "abi": [
    {
      "inputs": [],
      "stateMutability": "payable",
      "type": "constructor"
    },
    {
      "anonymous": false,
      "inputs": [
        {
          "components": [
            {
              "internalType": "address",
              "name": "addr",
              "type": "address"
            },
            {
              "internalType": "string",
              "name": "message",
              "type": "string"
            },
            {
              "internalType": "uint256",
              "name": "timestamp",
              "type": "uint256"
            }
          ],
          "indexed": false,
          "internalType": "struct WavePortal.Post[]",
          "name": "posts",
          "type": "tuple[]"
        }
      ],
      "name": "DeletePost",
      "type": "event"
    },
    {
      "anonymous": false,
      "inputs": [
        {
          "indexed": true,
          "internalType": "address",
          "name": "from",
          "type": "address"
        },
        {
          "indexed": false,
          "internalType": "string",
          "name": "message",
          "type": "string"
        },
        {
          "indexed": false,
          "internalType": "uint256",
          "name": "timestamp",
          "type": "uint256"
        }
      ],
      "name": "NewPost",
      "type": "event"
    },
    {
      "inputs": [
        {
          "internalType": "uint256",
          "name": "index",
          "type": "uint256"
        }
      ],
      "name": "deletePost",
      "outputs": [],
      "stateMutability": "nonpayable",
      "type": "function"
    },
    {
      "inputs": [],
      "name": "getAllPosts",
      "outputs": [
        {
          "components": [
            {
              "internalType": "address",
              "name": "addr",
              "type": "address"
            },
            {
              "internalType": "string",
              "name": "message",
              "type": "string"
            },
            {
              "internalType": "uint256",
              "name": "timestamp",
              "type": "uint256"
            }
          ],
          "internalType": "struct WavePortal.Post[]",
          "name": "",
          "type": "tuple[]"
        }
      ],
      "stateMutability": "view",
      "type": "function"
    },
    {
      "inputs": [],
      "name": "getTotalPosts",
      "outputs": [
        {
          "internalType": "uint256",
          "name": "",
          "type": "uint256"
        }
      ],
      "stateMutability": "view",
      "type": "function"
    },
    {
      "inputs": [
        {
          "internalType": "address",
          "name": "",
          "type": "address"
        }
      ],
      "name": "lastPostTimestamp",
      "outputs": [
        {
          "internalType": "uint256",
          "name": "",
          "type": "uint256"
        }
      ],
      "stateMutability": "view",
      "type": "function"
    },
    {
      "inputs": [
        {
          "internalType": "string",
          "name": "_message",
          "type": "string"
        }
      ],
      "name": "newPost",
      "outputs": [],
      "stateMutability": "nonpayable",
      "type": "function"
    }
  ],
  "bytecode": "0x6080604052606444426200001491906200002c565b62000020919062000093565b60018190555062000129565b6000620000398262000089565b9150620000468362000089565b9250827fffffffffffffffffffffffffffffffffffffffffffffffffffffffffffffffff038211156200007e576200007d620000cb565b5b828201905092915050565b6000819050919050565b6000620000a08262000089565b9150620000ad8362000089565b925082620000c057620000bf620000fa565b5b828206905092915050565b7f4e487b7100000000000000000000000000000000000000000000000000000000600052601160045260246000fd5b7f4e487b7100000000000000000000000000000000000000000000000000000000600052601260045260246000fd5b61139e80620001396000396000f3fe608060405234801561001057600080fd5b50600436106100575760003560e01c8063094cd5ee1461005c57806323bcaae91461007857806330561100146100945780635fe226b4146100b2578063db86e57d146100d0575b600080fd5b61007660048036038101906100719190610a74565b610100565b005b610092600480360381019061008d9190610a2f565b61032e565b005b61009c6106b0565b6040516100a99190610ed9565b60405180910390f35b6100ba610801565b6040516100c79190610faf565b60405180910390f35b6100ea60048036038101906100e59190610a06565b61080a565b6040516100f79190610faf565b60405180910390f35b60008190505b600160028054905061011891906110d3565b81101561026257600260018261012e919061107d565b81548110610165577f4e487b7100000000000000000000000000000000000000000000000000000000600052603260045260246000fd5b9060005260206000209060030201600282815481106101ad577f4e487b7100000000000000000000000000000000000000000000000000000000600052603260045260246000fd5b90600052602060002090600302016000820160009054906101000a900473ffffffffffffffffffffffffffffffffffffffff168160000160006101000a81548173ffffffffffffffffffffffffffffffffffffffff021916908373ffffffffffffffffffffffffffffffffffffffff1602179055506001820181600101908054610236906111af565b610241929190610822565b5060028201548160020155905050808061025a90611215565b915050610106565b50600280548061029b577f4e487b7100000000000000000000000000000000000000000000000000000000600052603160045260246000fd5b6001900381819060005260206000209060030201600080820160006101000a81549073ffffffffffffffffffffffffffffffffffffffff02191690556001820160006102e791906108af565b6002820160009055505090557f26b7059e86e2a5e093f90d994b199fda72742e814c6e451779e3c9c1475c871f60026040516103239190610efb565b60405180910390a150565b42601e600360003373ffffffffffffffffffffffffffffffffffffffff1673ffffffffffffffffffffffffffffffffffffffff1681526020019081526020016000205461037b919061107d565b106103bb576040517f08c379a00000000000000000000000000000000000000000000000000000000081526004016103b290610f6f565b60405180910390fd5b42600360003373ffffffffffffffffffffffffffffffffffffffff1673ffffffffffffffffffffffffffffffffffffffff168152602001908152602001600020819055506001600080828254610411919061107d565b92505081905550600260405180606001604052803373ffffffffffffffffffffffffffffffffffffffff16815260200184848080601f016020809104026020016040519081016040528093929190818152602001838380828437600081840152601f19601f82011690508083019250505050505050815260200142815250908060018154018082558091505060019003906000526020600020906003020160009091909190915060008201518160000160006101000a81548173ffffffffffffffffffffffffffffffffffffffff021916908373ffffffffffffffffffffffffffffffffffffffff160217905550602082015181600101908051906020019061051b9291906108ef565b5060408201518160020155505060646001544442610539919061107d565b610543919061107d565b61054d919061125e565b60018190555060326001541161065a576000655af3107a40009050478111156105ab576040517f08c379a00000000000000000000000000000000000000000000000000000000081526004016105a290610f4f565b60405180910390fd5b60003373ffffffffffffffffffffffffffffffffffffffff16826040516105d190610ec4565b60006040518083038185875af1925050503d806000811461060e576040519150601f19603f3d011682016040523d82523d6000602084013e610613565b606091505b5050905080610657576040517f08c379a000000000000000000000000000000000000000000000000000000000815260040161064e90610f8f565b60405180910390fd5b50505b3373ffffffffffffffffffffffffffffffffffffffff167f4220cd30ee23a1a4323898d66dc49f1590b9863d860cf84c674c8614e18d496b8383426040516106a493929190610f1d565b60405180910390a25050565b60606002805480602002602001604051908101604052809291908181526020016000905b828210156107f857838290600052602060002090600302016040518060600160405290816000820160009054906101000a900473ffffffffffffffffffffffffffffffffffffffff1673ffffffffffffffffffffffffffffffffffffffff1673ffffffffffffffffffffffffffffffffffffffff16815260200160018201805461075d906111af565b80601f0160208091040260200160405190810160405280929190818152602001828054610789906111af565b80156107d65780601f106107ab576101008083540402835291602001916107d6565b820191906000526020600020905b8154815290600101906020018083116107b957829003601f168201915b50505050508152602001600282015481525050815260200190600101906106d4565b50505050905090565b60008054905090565b60036020528060005260406000206000915090505481565b82805461082e906111af565b90600052602060002090601f016020900481019282610850576000855561089e565b82601f10610861578054855561089e565b8280016001018555821561089e57600052602060002091601f016020900482015b8281111561089d578254825591600101919060010190610882565b5b5090506108ab9190610975565b5090565b5080546108bb906111af565b6000825580601f106108cd57506108ec565b601f0160209004906000526020600020908101906108eb9190610975565b5b50565b8280546108fb906111af565b90600052602060002090601f01602090048101928261091d5760008555610964565b82601f1061093657805160ff1916838001178555610964565b82800160010185558215610964579182015b82811115610963578251825591602001919060010190610948565b5b5090506109719190610975565b5090565b5b8082111561098e576000816000905550600101610976565b5090565b6000813590506109a18161133a565b92915050565b60008083601f8401126109b957600080fd5b8235905067ffffffffffffffff8111156109d257600080fd5b6020830191508360018202830111156109ea57600080fd5b9250929050565b600081359050610a0081611351565b92915050565b600060208284031215610a1857600080fd5b6000610a2684828501610992565b91505092915050565b60008060208385031215610a4257600080fd5b600083013567ffffffffffffffff811115610a5c57600080fd5b610a68858286016109a7565b92509250509250929050565b600060208284031215610a8657600080fd5b6000610a94848285016109f1565b91505092915050565b6000610aa98383610def565b905092915050565b6000610abd8383610e3f565b905092915050565b610ace81611131565b82525050565b6000610adf82611004565b610ae9818561103f565b935083602082028501610afb85610fca565b8060005b85811015610b375784840389528151610b188582610a9d565b9450610b2383611025565b925060208a01995050600181019050610aff565b50829750879550505050505092915050565b6000610b548261100f565b610b5e818561103f565b935083602082028501610b7085610fda565b8060005b85811015610bab57848403895281610b8c8582610ab1565b9450610b9783611032565b925060208a01995050600181019050610b74565b50829750879550505050505092915050565b6000610bc9838561106c565b9350610bd683858461116d565b610bdf8361131c565b840190509392505050565b6000610bf58261101a565b610bff818561105b565b9350610c0f81856020860161117c565b610c188161131c565b840191505092915050565b60008154610c30816111af565b610c3a818661105b565b94506001821660008114610c555760018114610c6757610c9a565b60ff1983168652602086019350610c9a565b610c7085610fef565b60005b83811015610c9257815481890152600182019150602081019050610c73565b808801955050505b50505092915050565b6000610cb060248361106c565b91507f436f6e747261637420646f6573206e6f74206861766520656e6f75676820667560008301527f6e64732e000000000000000000000000000000000000000000000000000000006020830152604082019050919050565b6000610d1660298361106c565b91507f4d7573742077616974203330207365636f6e6473206265666f726520706f737460008301527f696e6720616761696e00000000000000000000000000000000000000000000006020830152604082019050919050565b6000610d7c60278361106c565b91507f4661696c656420746f207769746864726177206d6f6e65792066726f6d20636f60008301527f6e74726163742e000000000000000000000000000000000000000000000000006020830152604082019050919050565b6000610de2600083611050565b9150600082019050919050565b6000606083016000830151610e076000860182610ac5565b5060208301518482036020860152610e1f8282610bea565b9150506040830151610e346040860182610ea6565b508091505092915050565b6000606083016000808401549050610e56816111e1565b610e636000870182610ac5565b50600184018583036020870152610e7a8382610c23565b92505060028401549050610e8d816111fb565b610e9a6040870182610ea6565b50819250505092915050565b610eaf81611163565b82525050565b610ebe81611163565b82525050565b6000610ecf82610dd5565b9150819050919050565b60006020820190508181036000830152610ef38184610ad4565b905092915050565b60006020820190508181036000830152610f158184610b49565b905092915050565b60006040820190508181036000830152610f38818587610bbd565b9050610f476020830184610eb5565b949350505050565b60006020820190508181036000830152610f6881610ca3565b9050919050565b60006020820190508181036000830152610f8881610d09565b9050919050565b60006020820190508181036000830152610fa881610d6f565b9050919050565b6000602082019050610fc46000830184610eb5565b92915050565b6000819050602082019050919050565b60008190508160005260206000209050919050565b60008190508160005260206000209050919050565b600081519050919050565b600081549050919050565b600081519050919050565b6000602082019050919050565b6000600382019050919050565b600082825260208201905092915050565b600081905092915050565b600082825260208201905092915050565b600082825260208201905092915050565b600061108882611163565b915061109383611163565b9250827fffffffffffffffffffffffffffffffffffffffffffffffffffffffffffffffff038211156110c8576110c761128f565b5b828201905092915050565b60006110de82611163565b91506110e983611163565b9250828210156110fc576110fb61128f565b5b828203905092915050565b600073ffffffffffffffffffffffffffffffffffffffff82169050919050565b6000819050919050565b600061113c82611143565b9050919050565b600073ffffffffffffffffffffffffffffffffffffffff82169050919050565b6000819050919050565b82818337600083830152505050565b60005b8381101561119a57808201518184015260208101905061117f565b838111156111a9576000848401525b50505050565b600060028204905060018216806111c757607f821691505b602082108114156111db576111da6112ed565b5b50919050565b60006111f46111ef8361132d565b611107565b9050919050565b600061120e6112098361132d565b611127565b9050919050565b600061122082611163565b91507fffffffffffffffffffffffffffffffffffffffffffffffffffffffffffffffff8214156112535761125261128f565b5b600182019050919050565b600061126982611163565b915061127483611163565b925082611284576112836112be565b5b828206905092915050565b7f4e487b7100000000000000000000000000000000000000000000000000000000600052601160045260246000fd5b7f4e487b7100000000000000000000000000000000000000000000000000000000600052601260045260246000fd5b7f4e487b7100000000000000000000000000000000000000000000000000000000600052602260045260246000fd5b6000601f19601f8301169050919050565b60008160001c9050919050565b61134381611131565b811461134e57600080fd5b50565b61135a81611163565b811461136557600080fd5b5056fea264697066735822122034e9484febfb822b810849f5ce24cafc45eb970c7bdeeb00173b8d863c006f1264736f6c63430008000033",
  "linkReferences": {},
  "deployedLinkReferences": {}
}