{
  "_format": "hh-sol-artifact-1",
  "contractName": "WavePortal",
  "sourceName": "contracts/WavePortal.sol",
  "abi": [
    {
      "inputs": [],
      "stateMutability": "nonpayable",
      "type": "constructor"
    },
    {
      "anonymous": false,
      "inputs": [
        {
          "indexed": true,
          "internalType": "address",
          "name": "from",
          "type": "address"
        },
        {
          "indexed": false,
          "internalType": "string",
          "name": "message",
          "type": "string"
        },
        {
          "indexed": false,
          "internalType": "uint256",
          "name": "timestamp",
          "type": "uint256"
        }
      ],
      "name": "NewWave",
      "type": "event"
    },
    {
      "inputs": [],
      "name": "getAllWaves",
      "outputs": [
        {
          "components": [
            {
              "internalType": "address",
              "name": "waver",
              "type": "address"
            },
            {
              "internalType": "string",
              "name": "message",
              "type": "string"
            },
            {
              "internalType": "uint256",
              "name": "timestamp",
              "type": "uint256"
            }
          ],
          "internalType": "struct WavePortal.Wave[]",
          "name": "",
          "type": "tuple[]"
        }
      ],
      "stateMutability": "view",
      "type": "function"
    },
    {
      "inputs": [],
      "name": "getTotalFriends",
      "outputs": [
        {
          "components": [
            {
              "internalType": "address",
              "name": "addr",
              "type": "address"
            },
            {
              "internalType": "uint256",
              "name": "totalWaves",
              "type": "uint256"
            }
          ],
          "internalType": "struct WavePortal.Friend[]",
          "name": "",
          "type": "tuple[]"
        }
      ],
      "stateMutability": "view",
      "type": "function"
    },
    {
      "inputs": [],
      "name": "getTotalWaves",
      "outputs": [
        {
          "internalType": "uint256",
          "name": "",
          "type": "uint256"
        }
      ],
      "stateMutability": "view",
      "type": "function"
    },
    {
      "inputs": [
        {
          "internalType": "string",
          "name": "_message",
          "type": "string"
        }
      ],
      "name": "wave",
      "outputs": [],
      "stateMutability": "nonpayable",
      "type": "function"
    }
  ],
  "bytecode": "0x60806040523480156200001157600080fd5b506200005d6040518060400160405280600581526020017f53544152540000000000000000000000000000000000000000000000000000008152506200006360201b6200075d1760201c565b620001f7565b62000103816040516024016200007a919062000170565b6040516020818303038152906040527f41304fac000000000000000000000000000000000000000000000000000000007bffffffffffffffffffffffffffffffffffffffffffffffffffffffff19166020820180517bffffffffffffffffffffffffffffffffffffffffffffffffffffffff83818316178352505050506200010660201b60201c565b50565b60008151905060006a636f6e736f6c652e6c6f679050602083016000808483855afa5050505050565b60006200013c8262000194565b6200014881856200019f565b93506200015a818560208601620001b0565b6200016581620001e6565b840191505092915050565b600060208201905081810360008301526200018c81846200012f565b905092915050565b600081519050919050565b600082825260208201905092915050565b60005b83811015620001d0578082015181840152602081019050620001b3565b83811115620001e0576000848401525b50505050565b6000601f19601f8301169050919050565b6110c180620002076000396000f3fe608060405234801561001057600080fd5b506004361061004c5760003560e01c80633c94381914610051578063449d46c01461006f5780639a2cdc081461008b578063bd43a908146100a9575b600080fd5b6100596100c7565b6040516100669190610ccf565b60405180910390f35b61008960048036038101906100849190610a62565b610186565b005b610093610603565b6040516100a09190610dcc565b60405180910390f35b6100b161060c565b6040516100be9190610cf1565b60405180910390f35b60606001805480602002602001604051908101604052809291908181526020016000905b8282101561017d57838290600052602060002090600202016040518060400160405290816000820160009054906101000a900473ffffffffffffffffffffffffffffffffffffffff1673ffffffffffffffffffffffffffffffffffffffff1673ffffffffffffffffffffffffffffffffffffffff168152602001600182015481525050815260200190600101906100eb565b50505050905090565b600360003373ffffffffffffffffffffffffffffffffffffffff1673ffffffffffffffffffffffffffffffffffffffff16815260200190815260200160002060009054906101000a900460ff161561030157600180600460003373ffffffffffffffffffffffffffffffffffffffff1673ffffffffffffffffffffffffffffffffffffffff1681526020019081526020016000205481548110610252577f4e487b7100000000000000000000000000000000000000000000000000000000600052603260045260246000fd5b90600052602060002090600202016001015461026e9190610ee7565b6001600460003373ffffffffffffffffffffffffffffffffffffffff1673ffffffffffffffffffffffffffffffffffffffff16815260200190815260200160002054815481106102e7577f4e487b7100000000000000000000000000000000000000000000000000000000600052603260045260246000fd5b90600052602060002090600202016001018190555061044d565b6001600360003373ffffffffffffffffffffffffffffffffffffffff1673ffffffffffffffffffffffffffffffffffffffff16815260200190815260200160002060006101000a81548160ff021916908315150217905550600180549050600460003373ffffffffffffffffffffffffffffffffffffffff1673ffffffffffffffffffffffffffffffffffffffff16815260200190815260200160002081905550600160405180604001604052803373ffffffffffffffffffffffffffffffffffffffff1681526020016001815250908060018154018082558091505060019003906000526020600020906002020160009091909190915060008201518160000160006101000a81548173ffffffffffffffffffffffffffffffffffffffff021916908373ffffffffffffffffffffffffffffffffffffffff1602179055506020820151816001015550505b600160008082825461045f9190610ee7565b925050819055506104a56040518060400160405280600681526020017f46726f6d3a200000000000000000000000000000000000000000000000000000815250336107f6565b6104e46040518060400160405280600981526020017f4d6573736167653a20000000000000000000000000000000000000000000000081525082610892565b600260405180606001604052803373ffffffffffffffffffffffffffffffffffffffff16815260200183815260200142815250908060018154018082558091505060019003906000526020600020906003020160009091909190915060008201518160000160006101000a81548173ffffffffffffffffffffffffffffffffffffffff021916908373ffffffffffffffffffffffffffffffffffffffff16021790555060208201518160010190805190602001906105a3929190610957565b506040820151816002015550503373ffffffffffffffffffffffffffffffffffffffff167f6728ef66814a55b797863bf8ffcd954b19cbca4ed4f0e6cf04c980705fd82c3682426040516105f8929190610d9c565b60405180910390a250565b60008054905090565b60606002805480602002602001604051908101604052809291908181526020016000905b8282101561075457838290600052602060002090600302016040518060600160405290816000820160009054906101000a900473ffffffffffffffffffffffffffffffffffffffff1673ffffffffffffffffffffffffffffffffffffffff1673ffffffffffffffffffffffffffffffffffffffff1681526020016001820180546106b990610fbb565b80601f01602080910402602001604051908101604052809291908181526020018280546106e590610fbb565b80156107325780601f1061070757610100808354040283529160200191610732565b820191906000526020600020905b81548152906001019060200180831161071557829003601f168201915b5050505050815260200160028201548152505081526020019060010190610630565b50505050905090565b6107f3816040516024016107719190610d13565b6040516020818303038152906040527f41304fac000000000000000000000000000000000000000000000000000000007bffffffffffffffffffffffffffffffffffffffffffffffffffffffff19166020820180517bffffffffffffffffffffffffffffffffffffffffffffffffffffffff838183161783525050505061092e565b50565b61088e828260405160240161080c929190610d35565b6040516020818303038152906040527f319af333000000000000000000000000000000000000000000000000000000007bffffffffffffffffffffffffffffffffffffffffffffffffffffffff19166020820180517bffffffffffffffffffffffffffffffffffffffffffffffffffffffff838183161783525050505061092e565b5050565b61092a82826040516024016108a8929190610d65565b6040516020818303038152906040527f4b5c4277000000000000000000000000000000000000000000000000000000007bffffffffffffffffffffffffffffffffffffffffffffffffffffffff19166020820180517bffffffffffffffffffffffffffffffffffffffffffffffffffffffff838183161783525050505061092e565b5050565b60008151905060006a636f6e736f6c652e6c6f679050602083016000808483855afa5050505050565b82805461096390610fbb565b90600052602060002090601f01602090048101928261098557600085556109cc565b82601f1061099e57805160ff19168380011785556109cc565b828001600101855582156109cc579182015b828111156109cb5782518255916020019190600101906109b0565b5b5090506109d991906109dd565b5090565b5b808211156109f65760008160009055506001016109de565b5090565b6000610a0d610a0884610e18565b610de7565b905082815260208101848484011115610a2557600080fd5b610a30848285610f79565b509392505050565b600082601f830112610a4957600080fd5b8135610a598482602086016109fa565b91505092915050565b600060208284031215610a7457600080fd5b600082013567ffffffffffffffff811115610a8e57600080fd5b610a9a84828501610a38565b91505092915050565b6000610aaf8383610c32565b60408301905092915050565b6000610ac78383610c61565b905092915050565b610ad881610f3d565b82525050565b610ae781610f3d565b82525050565b6000610af882610e68565b610b028185610ea3565b9350610b0d83610e48565b8060005b83811015610b3e578151610b258882610aa3565b9750610b3083610e89565b925050600181019050610b11565b5085935050505092915050565b6000610b5682610e73565b610b608185610eb4565b935083602082028501610b7285610e58565b8060005b85811015610bae5784840389528151610b8f8582610abb565b9450610b9a83610e96565b925060208a01995050600181019050610b76565b50829750879550505050505092915050565b6000610bcb82610e7e565b610bd58185610ec5565b9350610be5818560208601610f88565b610bee8161107a565b840191505092915050565b6000610c0482610e7e565b610c0e8185610ed6565b9350610c1e818560208601610f88565b610c278161107a565b840191505092915050565b604082016000820151610c486000850182610acf565b506020820151610c5b6020850182610cb1565b50505050565b6000606083016000830151610c796000860182610acf565b5060208301518482036020860152610c918282610bc0565b9150506040830151610ca66040860182610cb1565b508091505092915050565b610cba81610f6f565b82525050565b610cc981610f6f565b82525050565b60006020820190508181036000830152610ce98184610aed565b905092915050565b60006020820190508181036000830152610d0b8184610b4b565b905092915050565b60006020820190508181036000830152610d2d8184610bf9565b905092915050565b60006040820190508181036000830152610d4f8185610bf9565b9050610d5e6020830184610ade565b9392505050565b60006040820190508181036000830152610d7f8185610bf9565b90508181036020830152610d938184610bf9565b90509392505050565b60006040820190508181036000830152610db68185610bf9565b9050610dc56020830184610cc0565b9392505050565b6000602082019050610de16000830184610cc0565b92915050565b6000604051905081810181811067ffffffffffffffff82111715610e0e57610e0d61104b565b5b8060405250919050565b600067ffffffffffffffff821115610e3357610e3261104b565b5b601f19601f8301169050602081019050919050565b6000819050602082019050919050565b6000819050602082019050919050565b600081519050919050565b600081519050919050565b600081519050919050565b6000602082019050919050565b6000602082019050919050565b600082825260208201905092915050565b600082825260208201905092915050565b600082825260208201905092915050565b600082825260208201905092915050565b6000610ef282610f6f565b9150610efd83610f6f565b9250827fffffffffffffffffffffffffffffffffffffffffffffffffffffffffffffffff03821115610f3257610f31610fed565b5b828201905092915050565b6000610f4882610f4f565b9050919050565b600073ffffffffffffffffffffffffffffffffffffffff82169050919050565b6000819050919050565b82818337600083830152505050565b60005b83811015610fa6578082015181840152602081019050610f8b565b83811115610fb5576000848401525b50505050565b60006002820490506001821680610fd357607f821691505b60208210811415610fe757610fe661101c565b5b50919050565b7f4e487b7100000000000000000000000000000000000000000000000000000000600052601160045260246000fd5b7f4e487b7100000000000000000000000000000000000000000000000000000000600052602260045260246000fd5b7f4e487b7100000000000000000000000000000000000000000000000000000000600052604160045260246000fd5b6000601f19601f830116905091905056fea26469706673582212201e2d11795507a8be1d04bdc95062639250c6c9155253767a8cc2248d6897e15364736f6c63430008000033",
  "linkReferences": {},
  "deployedLinkReferences": {}
}